:1000000000000220C92A0000F12A0000F32A0000A3
:10001000F52A0000F72A0000F92A0000000000007D
:10002000000000000000000000000000FB2A0000AB
:10003000FD2A000000000000FF2A0000012B000044
:10004000032B0000032B0000A1320000390900003F
:100050002D090000032B0000032B0000032B0000E0
:10006000032B0000032B0000032B0000032B0000D8
:10007000032B0000032B0000032B0000032B0000C8
:10008000032B0000512C0000032B0000032B000069
:10009000032B0000032B0000032B0000032B0000A8
:1000A000032B0000032B0000032B0000032B000098
:1000B000032B0000032B00000000000000000000E4
:1000C000032B0000032B0000032B0000032B000078
:1000D000032B0000032B0000032B0000032B000068
:1000E000032B0000000000000000000000000000E2
:1000F00000000000032B000000000000032B0000A4
:1001000000000000000000000000000000000000EF
:1001100000000000000000000000000000000000DF
:1001200000000000000000000000000000000000CF
:1001300000000000000000000000000000000000BF
:1001400000000000000000000000000000000000AF
:10015000000000000000000000000000000000009F
:10016000000000000000000000000000000000008F
:10017000000000000000000000000000000000007F
:10018000000000000000000000000000000000006F
:10019000000000000000000000000000000000005F
:1001A000000000000000000000000000000000004F
:1001B000000000000000000000000000000000003F
:1001C000000000000000000000000000000000002F
:1001D000000000000000000000000000000000001F
:1001E000000000000000000000000000000000000F
:1001F00000000000000000000000000000000000FF
:10020000044B05481B1A062B02D9044B03B11847AF
:10021000704700BF8F0000208C000020000000000D
:1002200005490648091A891001EBD171491002D01D
:10023000034B03B1184770478C0000208C0000204E
:100240000000000010B5064C237843B9FFF7D8FF33
:10025000044B13B10448AFF300800123237010BD99
:100260008C00002000000000905B000008B5084BE7
:100270001BB108490848AFF300800848036813B968
:10028000BDE80840CCE7064B002BF9D09847F7E7CC
:100290000000000090000020905B0000880000201B
:1002A00000000000154B002B08BF134B9D46A3F523
:1002B000803A00218B460F461348144A121A03F065
:1002C000B7FD0F4B002B00D098470E4B002B00D0F2
:1002D00098470020002104000D000D48002802D09E
:1002E0000C48AFF3008003F06DFD2000290002F000
:1002F000EFFF03F041FD00BF0000080000000220F6
:1003000000000000000000008C000020D40300204A
:100310000000000000000000704700002DE9F041DF
:100320003848394F00F022FF02F06CFC3B68C01ADD
:10033000B0F57A7F63D935493548364C02F00AFD6D
:10034000304800F0CDFD10EE100A03F057F941ECF3
:10035000100B02212E4802F01DFE2F492C4802F0FE
:10036000F9FC284800F0BFFD0A220146284802F0A7
:1003700039FD2A49264802F0FDFC0125204601F0FE
:10038000F5F829462046257702F03AF8002606239C
:1003900063822349E582A5822682204602F0F4FC8E
:1003A000262363821F492682204602F0EDFC4FF08F
:1003B00024080221204602F023F8A4F81080668267
:1003C000104800F090FD0A220146204602F00CFD84
:1003D000202363820B48A4F8108000F081FD10EE0A
:1003E000100A03F00BF941EC100B2946204602F0ED
:1003F000D4FD204601F084FB02F004FC3860BDE827
:10040000F08100BF18010020C0010020CC4D000089
:1004100060030020A8000020D84D0000EF4D000030
:10042000E44D0000F14D000030B5104A104C114B66
:10043000114D85B04FF0FF318DE80E0020460F4B77
:100440004022802100F08CFF20460D4C0D492A46A9
:1004500003F05AFC204600F0F3FC0B492A462046E4
:1004600005B0BDE8304003F04FBC00BF801A060065
:10047000A8000020A08601000000002080020020CB
:1004800018010020BD1300001903000010B5094930
:10049000094C0A4802F06EFC6423238220460023A4
:1004A0000321638201F024FF2046BDE8104001F0E3
:1004B00027BB00BF054E0000A800002060030020FD
:1004C00007B54FF4E131184802F0B3FD174916485B
:1004D00002F040FC012300933C220221144801F069
:1004E00053F820B91349104802F04EFCFEE71048BB
:1004F00001F03CF84FF47A7002F09CFB00210E48AA
:1005000000F0C2FC20B90D49074802F033FCFEE7B9
:100510000B49054802F02EFC0A49074803B05DF874
:1005200004EB00F0E3BC00BF600300200B4E0000B2
:10053000A8000020294E000018010020434E0000B2
:100540004A4E00008D0400002DE9F84380460D4618
:10055000174601EB02090C464C45A4EB050609D0F1
:10056000D8F8003014F8011B1B6840469847002853
:10057000F2D100E03E463046BDE8F88370472030B7
:1005800002F03EBD38B5437F0D462BB100F1680443
:10059000204602F043FD08B1002038BD2046294620
:1005A00002F011FD012038BD203002F01BBD2030CB
:1005B00002F02CBD2DE9F0411E464FF47A73002560
:1005C00083600D4B4560044640F8203B8846174643
:1005D00002F0EEFC04F1680002F0EAFC9DF818302D
:1005E00063769DF81C30A376C4F810806761267688
:1005F00065772046BDE8F0815C4E0000F0B5837E53
:100600002D4C2E4D54F82320437E54F8233012F005
:10061000200F14BF2F464FF0A04702F01F0213F027
:10062000200F03F01F0308BF4FF0A04502F5E07252
:1006300003F5E073012140F20C66C17647F82260B1
:1006400045F8236003694FF0CC72C3F824250622D5
:10065000C3F80025827E54F82220C3F80825427E84
:1006600054F82220C3F80C25027E53B2D2B202F015
:100670001F055C09A9406034114D002B45F824107A
:1006800006DA104B02F00F02134440221A7606E0FD
:1006900003F1604303F56143402283F80023037EA6
:1006A00001215AB203F01F0301FA03F3520904496E
:1006B00041F82230F0BD00BFE459000000030050B3
:1006C00000E100E0FCEC00E0C37EABB10369002276
:1006D000C3F80025094A914207D9094A914294BFBB
:1006E0004FF080614FF0C86101E04FF0CC710622FD
:1006F000C3F82415C3F80025704700BFA086010089
:1007000090D003002DE9F8430646894698461546E1
:10071000B2B100F12007384602F060FC34690122D2
:10072000C4F888952262C4F83475C4F8385522603C
:10073000D4F84C313BB9D4F82431002BF8D002E086
:100740001046BDE8F8830023C4F84C31D4F85C317E
:100750001BB9D4F82431002BF8D00023C4F85C3145
:100760000122B8F1000F02D1D4F8243143B1626103
:10077000D4F80431002BFBD00023C4F8043107E087
:10078000E261D4F84831002BFBD00023C4F8483193
:10079000D4F8243113B10023C4F82431D4F83C0533
:1007A0003066C0B2BDE8F8830123FFF7ABBF10B5D8
:1007B000044680F8B010683002F010FC0123637723
:1007C00010BD2DE9F041002305694377012790F81A
:1007D000B030C5F8883500F1680604462F6230460F
:1007E000C5F84465884602F00BFC2369C5F8480546
:1007F0009F60D3F850211AB9D3F82421002AF8D0E9
:100800000022C3F85021304602F0FAFB236930B1D0
:10081000D3F860211AB9D3F82421002AF8D0002295
:10082000C3F860210122B8F1000F02D1D3F82411DE
:1008300041B15A61D3F80421002AFBD00022C3F849
:10084000042107E0DA61D3F84821002AFBD0002216
:10085000C3F84821D3F8240170B10022C3F8242141
:10086000D3F8C404C3F8C404022805D0042814BF74
:1008700004200320BDE8F081BDE8F0810121FFF7ED
:10088000A0BF4369D3F8642170B5044682B1002249
:10089000012500F12006C3F864210577304602F0F7
:1008A0009DFB63694022C3F83465C3F838251D6396
:1008B0006369D3F86821D2B10025C3F8685104F107
:1008C0006806012363772577304602F087FBD4F86A
:1008D000B43003B19847657765693046C5F844651B
:1008E00002F08EFB6369C5F8480501225A6363690B
:1008F000D3F804215AB10022C3F80421227F32B177
:10090000D3F83C05D4F8B830206603B19847636942
:10091000D3F8242142B10022C3F82421D3F8D024F3
:10092000C3F8D02401225A6170BD00000148FFF7CE
:10093000A8BF00BF800200200148FFF7A2BF00BF90
:10094000C401002007B5132314228DE80C004FF0DA
:100950004022114604230848FFF72CFE074A0848A6
:100960001E211F238DE80A0003231146FFF722FEF4
:1009700003B05DF804FB00BF80020020003000409F
:10098000C40100200346002218645864A0F84820DF
:100990007047B0F8483070B593B1446C251F85425C
:1009A00045642688648838BF00F13C0503F1FF33B5
:1009B00038BF4564A0F848300E800120148070BD17
:1009C000184670BD70B50A4C0E4620465721154694
:1009D000FFF7EDFE31462046FFF7D4FD29462046BD
:1009E000FFF7D0FD2046BDE87040FFF747BF00BFCE
:1009F000800200200A460621FFF7E4BF41EA021206
:100A0000D2B20921FFF7DEBF38B50C4C0D462046A7
:100A10005721FFF7CCFE29462046FFF7B3FD002102
:100A20002046FFF7CEFE012257212046FFF7BCFEED
:100A30002046FFF7B9FDC0B238BD00BF80020020DC
:100A400038B50D4607210446FFF7DEFF00F0FC0233
:100A50002A4320460721BDE83840FFF7B3BF38B529
:100A60000D4607210446FFF7CFFF20F01C0040EAA7
:100A70008502D2B220460721BDE83840FFF7A2BF69
:100A800038B50D4607210446FFF7BEFF1DB140F003
:100A90004002D2B201E000F0BF0220460721BDE8CB
:100AA0003840FFF78FBFFF21FFF7AEBF10B50446F8
:100AB0001248FFF7A3FD12491048FFF705FE204634
:100AC000FFF7F1FF112816D120460221FFF792FF10
:100AD00020460321FFF7B4FF20460121FFF7BFFFA7
:100AE000FF2220460921FFF76DFF20460121FFF775
:100AF000C7FF012010BD002010BD00BF80020020F4
:100B0000801A060070B511480D4657211C4616463E
:100B1000FFF74DFE29460D48FFF734FD00210B4835
:100B2000FFF74FFE224657210848FFF73DFE0024FD
:100B30000648FFF724FD651C30B10448FFF734FD7B
:100B4000E4B230552C46F3E770BD00BF80020020B0
:100B5000F0B5022191B00446FFF756FF0421054687
:100B60002046FFF751FF281A10F00F0532D0AB00D6
:100B7000013D6A4605212046EDB2FFF7C3FF0DEBAC
:100B80008505636C0DF10102053504F1400611780D
:100B900012F8010C577841EA002004339178B342EF
:100BA00008BF234641EA072118805980B4F848104D
:100BB000102906D1216C04318E4208BF21462164E0
:100BC00004E0481CA4F8480001B923640432AA4296
:100BD000DDD1636411B0F0BDFFF7BABF04494160D5
:100BE0000022002102708160C1600261704700BF75
:100BF0000000A04190ED027AB5EE407AF1EE10FAD5
:100C00001FBFF7EE006AC6EE877A9FED060A27EE51
:100C1000800A1ABFDFED047A20EE270A9FED030A4F
:100C2000704700BF00007A440000704200000000DE
:100C300090ED010A704700002DE9D0432DED028BA5
:100C4000D0ED038AF5EEC08AF1EE10FA04462BDDF2
:100C500090ED028AB5EEC08AF1EE10FA24DD40680C
:100C600002F0CCFC064618EE900A0F4602F0C6FCD5
:100C70001BA3D3E9002302F015FDF2EE047A88EEFF
:100C8000277A8046894617EE100A02F0B7FC024622
:100C90000B464046494602F02FFE02460B463046C0
:100CA000394602F04BFB07E0606802F0A7FC0EA398
:100CB000D3E9002302F0F6FC02F0D6FFBDEC028B74
:100CC000606094ED017AF3EE047AB4EEE77AF1EE27
:100CD00010FA48BFC4ED017ABDE8D083AFF30080BD
:100CE000666666666666E63FAE47E17A14AEEF3F3B
:100CF000D0B503782DED028B0446042B00F28D80D5
:100D0000DFE803F0030B2D42820001F07BFFB0F51A
:100D1000FA6F40F28280012374E0D0ED017AF4EEA4
:100D2000C07AF1EE10FA0CD5DFED437AB4EEE70AA3
:100D3000F1EE10FA58BFB0EE670A022380ED010A07
:100D4000037001F05FFF2369C01AB0F5FA6F82BF2C
:100D50000023A360E3602046FFF76EFF5DE0D0ED67
:100D6000017AB4EEE70AF1EE10FA01D5032349E067
:100D7000DFED317AB4EEE70AF1EE10FA58BFB0EECB
:100D8000670A80ED010A48E0F3EE0E7A70EE277AEA
:100D900090ED017AF4EEC77AF1EE10FA31D5042322
:100DA000037080ED030A01F02DFF2369C01A07EEDE
:100DB000900AB8EE678AB5EE408AF1EE10FA1BD0C1
:100DC000A06802F01BFC18A3D3E9002302F06AFC20
:100DD000064618EE100A0F4602F010FC14A3D3E9E1
:100DE000002302F05FFC02460B463046394602F013
:100DF000A7FA02F039FFA06001F004FF2061012092
:100E00000CE00223237008E001F0FCFE2369C01A05
:100E1000C828A0D9012323709DE70020BDEC028BD8
:100E2000D0BD00BFAFF300809A9999999999D93FA5
:100E3000333333333333E33F00004844FFF758BFC5
:100E400038B500250446057045608560C5600561BC
:100E50001430FFF7C3FE0023A362E36223636363DE
:100E6000A363082384F840300F2384F8413004F151
:100E7000440000F088F904F15800FFF783FDC4F83E
:100E8000A450204638BD000070B500F158054170EF
:100E900004462846FFF70AFE064638B96078C0B116
:100EA0000C490D4801F066FF304670BD032128460D
:100EB000FFF7A0FD94F8402094F841102846FFF772
:100EC0009DFD064AA26200230120E3622263636360
:100ED000207070BD744E0000600300203333733FF8
:100EE0001430FFF787BE443000F0D6B9C0F8A41024
:100EF0007047000000000000F0B52DED048B0446A3
:100F000083B00DF1060201A904F15800FFF741FD7D
:100F1000002800F0CB80BDF80430D4ED0B7A94EDBE
:100F20000A7A94ED0F9A08EE103AB8EE488ABDF8A6
:100F3000063084ED0E9AA7EE878A08EE903A94ED7B
:100F40000C7A84ED0B8AF8EE688A38EE678AD4ED65
:100F50000D7AE7EE878AC4ED0D8A78EEE78AF1EE26
:100F6000487A17EE900A02F049FB56A3D3E9002312
:100F700002F098FB064619EE100A0F4602F03EFBFF
:100F800052A3D3E9002302F08DFB02460B46304604
:100F9000394602F0D5F902F067FE07EE900A39EE05
:100FA000279A04F11406E063B0EE490A3046FFF7D1
:100FB00045FF07463046FFF71DFEB5EEC00AF1EECD
:100FC00010FA0BDD2046022300F8443B3946F0EED0
:100FD000680AB0EE480A00F0E7F808E02378022B30
:100FE00005D12046012300F8443B00F0D4F8657891
:100FF000022D18D0032D30D0012D4DD12E492F4870
:1010000001F0A8FE0A22BDF804102C4801F018FFD8
:101010002B492A4801F09EFE0A22BDF806102748F7
:1010200001F010FF38E02449244801F093FE18EE47
:10103000100A02F0E3FA41EC100B29461F4801F0B8
:10104000A9FF1F491D4801F085FE18EE900A02F025
:10105000D5FA41EC100B29461BE01749174801F05F
:1010600079FE19EE100A02F0C9FA41EC100B0221C8
:10107000124801F08FFF1249104801F06BFE304614
:10108000FFF7D6FD10EE100A02F0B8FA41EC100B93
:1010900002210A4801F081FF002F3FF432AFD4F85B
:1010A000A430002B3FF42DAF98472AE703B0BDECE6
:1010B000048BF0BDAFF30080984E00006003002069
:1010C0009B4E000048457C5EEF63CF3F5CDDC15026
:1010D000084EE03F10B5044601F094FDE368C01AE5
:1010E000B0F5FA7F3AD9D4ED0B6A94ED0D7ADFEDC5
:1010F0001C7A36EEC76AB4EEE76AF1EE10FA05DD47
:1011000094F840300E2B01D801330AE037EE667AAE
:10111000B4EEE77AF1EE10FA1CDD94F84030CBB172
:10112000013B84F8403094F8402094F8411004F1D9
:101130005800FFF763FC01F065FD637820614BB157
:101140000849094801F006FE0A2294F840100648B2
:1011500001F04AFE01F056FDE06010BD10BD00BF79
:1011600000B888479D4E00006003002010B504467B
:101170005830FFF731FD2046FFF7BEFE2046BDE8A0
:101180001040FFF7A7BF00220260426000220272F7
:10119000C2600274704700230022C3604260026094
:1011A0000372037470470000D0ED007A90ED017A6D
:1011B000C368E0EE007A0133D3B5A0EEA07A04460E
:1011C000C360C0ED007A80ED017A002959D0027A1F
:1011D0000132D2B2032A027253D107EE903AF8EEEE
:1011E000677AC7EE276A16EE900A02F007FA41EC1A
:1011F000100B01F0A5F9D4ED037A94ED007AF8EE26
:10120000677A57EC106BC7EE276A16EE900A02F069
:10121000F5F941EC100B01F093F900221A4B30461E
:1012200039468DED000B02F03DFA9DED000B53ECBD
:10123000102B02F061FB02F017FD9FED147A07EE10
:10124000900AF4EEC77AF1EE10FA05DDFCEEE77ACB
:1012500017EE901A42390BE09FED0D7AF4EEC77A43
:10126000F1EE10FA06DDFCEEE77A17EE901A32394D
:10127000CEB200E000262046FFF78DFF054B9B5DB8
:10128000237402B0D0BD00BF00005940000084426A
:1012900000004842A04E0000007C7047002930B595
:1012A0005DDBB0F90C408C4259DD002A57DBB0F908
:1012B0000E40944200DC30BD847E022C03D10489B0
:1012C000013C611A06E0032C3DD1514089B24A40ED
:1012D00092B251404489013CA21A09B212B2012BC8
:1012E00003D010D3022B1ED030BD0589082492FBF9
:1012F000F4F414FB0511C46A02F00702605C934029
:101300000343635430BD0489082392FBF3F313FBBA
:101310000411C46A02F007020120635C00FA02F2C1
:1013200023EA02020DE00489082392FBF3F313FB86
:101330000411C46A02F007020120635C00FA02F2A1
:101340005A40625430BD012CC9D1514089B24A4043
:10135000048912B2013C5140611A09B2BFE730BDA5
:1013600038B504461D4600F0E9FD124B2360124BD0
:101370000022954208BF1D46FF2384F8333084F8CD
:10138000343084F8353084F836309DF9103084F8E4
:101390003730059BA365069BE3654FF0804363668A
:1013A000022384F868306262A562E262E266204647
:1013B00038BD00BFE84E000080020020044B10B58D
:1013C00004460360C06A08B102F02AFD204610BD41
:1013D000E84E0000F8B50446806A0E4690B194F8D5
:1013E0003010FFF7E4F9A06A036800211B689847F2
:1013F000A06A036831461B689847A06ABDE8F840B8
:10140000FFF73CBA226C206D136823EA0003606A80
:10141000136018B1BDE8F84001F069B8E36B08202B
:101420008025A26BA16C17682E4214BF394327EAAE
:10143000010111601968E26C0A431A601A68E16CD4
:10144000013822EA01021A604FEA5505E9D1F8BDD8
:1014500038B50446806A0D4618B1A16DFFF734F91E
:101460000CE0606A20B104F164030ECB01F032F8A5
:10147000626C616D136823EA01031360002D20463E
:1014800014BFA721A621FFF7A5FFA06A20B1E16D37
:10149000BDE83840FFF718B9626C636D1168606A87
:1014A0000B43136018B1BDE8384001F01FB838BDD8
:1014B000F8B50446806A0D468F1848B394F830108A
:1014C000FFF775F9A06A036800211B689847012699
:1014D000BD4218D03E2E0DD9A06AFFF7CFF994F87F
:1014E0003010A06AFFF763F9A06A036800211B6847
:1014F00098470126A06A15F8011B036801361B688E
:101500009847F6B2E4E7A06ABDE8F840FFF7B6B93D
:10151000226C216D136823EA01031360BD4224D0BD
:10152000606A15F8011B10B100F0E1FFF6E7E36B0C
:1015300008264FF0800EA26BA06CD2F800C011EA12
:101540000E0F14BF4CEA00002CEA0000106018686F
:10155000E26C02431A601A68E06C013E22EA000263
:101560001A604FEA5E0EE6D1D8E7F8BDB0F90A304E
:101570000822073393FBF2F3B0F90820C06A5A43FC
:10158000002102F055BC00002DE9F0431E4685B055
:10159000C36A9DF8307004468846154673B9B0F9A1
:1015A0000A300820073393FBF0F3B4F908005843DE
:1015B00002F02EFCE062002800F058812046FFF780
:1015C000D5FFB4F90A20B4F90830202A4FF00201FF
:1015D0000EDD523B403A4FF0400992FBF1F24FF0E2
:1015E000010C93FBF1F152238DE80812A14B0CE0A2
:1015F000733B203A732092FBF1F24FF0010E93FB04
:10160000F1F120238DE809409B4B204612B209B22C
:1016100000F003FDA06A84F8318080B135B9B4F9D7
:101620000A30202B14BF3D253C2500E0EDB284F8A4
:101630003050002F00F01681FEF7E0FF6FE001212F
:1016400094F93500DFF84C92DFF84C8201F016FB7C
:10165000012194F9360001F011FB94F93530606AEC
:1016600059F82330012513F0200F03F01F0305FA6A
:1016700003F3236594F9363059F823300CBF4FF04B
:10168000A042424602F5A16213F0200F03F01F03AF
:10169000226405FA03F30CBF4FF0A0424246636593
:1016A00002F5A1616164D2F808150B43C2F8083550
:1016B00018B1A7B300F0F8FE31E0294694F93300E1
:1016C00001F0DCFA294694F9340001F0D7FA94F9D4
:1016D000333059F8233013F0200F03F01F0305FABD
:1016E00003F3A36494F9343059F823300CBF4FF05E
:1016F000A042424613F0200F03F01F0308BF4FF033
:10170000A0489D40E564D8F8083502F5A162A263BF
:1017100023EA050508F5A162E263C8F80855DEB1C1
:1017200094F93700002817DB012101F0A7FA012105
:1017300094F9370001F0CCFA012001F07BFA002186
:1017400094F9370001F0C4FA0A2001F073FA01217C
:1017500094F9370001F0BCFAA06A18B1A16DFEF748
:10176000B3FF0CE0606A20B104F164030ECB00F01B
:10177000B1FE626C616D136823EA010313600422F9
:101780003E492046FFF794FEA17A0139C9B22046AE
:10179000FFF720FE3A4904222046FFF789FE94F91C
:1017A0003130012B14BF142110212046FFF712FE07
:1017B000042234492046FFF77BFE8F2384F86030F3
:1017C000314AA368934218D002F50012934209D11E
:1017D00094F93130012B14BFCF239F2384F860305C
:1017E00012250BE0294A934207D194F93130012B9D
:1017F00014BFAF23102384F860300225DA2120467D
:10180000FFF7E8FD29462046FFF7E4FD8121204649
:10181000FFF7E0FD94F860102046FFF7DBFDD921CB
:101820002046FFF7D7FD94F93130012B14BFF12189
:1018300022212046FFF7CEFD204606221449FFF75D
:1018400037FEA06A18B1E16DFEF73EFF08E0626C5A
:10185000636D1168606A0B43136008B100F046FEC7
:10186000012003E0002E3FF479AF59E705B0BDE851
:10187000F08300BF22510000304F000010510000E3
:10188000145100001851000080002000600010007A
:101890001C510000E459000000030050F0B5002A7C
:1018A000BDF8146046DBB0F90A40944242DD0029DD
:1018B000B8BF5B180489BCBF1BB20021CD1827B28A
:1018C000BD42C4BF631A1BB2002B33DD0825C06ABA
:1018D00092FBF5F5ADB214FB0511084402F00702C6
:1018E000012101FA02F28E42D2B203D00CD3022EB1
:1018F00016D0F0BD013B1BB25D1C1BD010F8011BC4
:10190000114300F8011CF5E7D243D2B2013B1BB2F0
:101910005C1C0FD010F8011B114000F8011CF5E70A
:10192000013B1BB2591C05D010F8011B514000F8B7
:10193000011CF5E7F0BD0000F0B50F1EBDF8145016
:10194000C0F28B8001890FFA81FE774580F2858095
:10195000002AB8BF9B184489BCBF1BB20022D6180E
:101960000FFA84FC6645C4BFA31A1BB2002B74DDBA
:10197000D2B2D408C66A11FB047112F00702DBB2BE
:1019800006EB01042BD0C2F10802D2B2334F9342CE
:10199000BF5C0DD2C3EB020C4FF0FF0E4EFA0CFEF3
:1019A000012D0EEA070705D00AD3022D55D10CE010
:1019B000012D04D116F801E047EA0E0709E048D2EC
:1019C00016F801E02EEA070703E016F801E087EABF
:1019D0000E079342775440D3B0F908100C449B1A79
:1019E000DBB2072B1CD9022D0BD11A462178C94333
:1019F0002170083AB0F90810D2B2072A0C44F5D881
:101A00001EE0002D14BFFF2600261A462670083A55
:101A1000B0F90810D2B2072A0C44F7D803F0070334
:101A2000DBB10F4A012DD35C03D005D3022D14D1B5
:101A30000BE0227813430AE0227822EA030306E04F
:101A400013F0070309D0064AD35C22785340237071
:101A5000F0BD022DB9D07444C1E7F0BDD84E0000EE
:101A6000CB4E000070B4847EBDF80C60022C08D010
:101A7000032C0FD0012C18D10589013DAC1A24B2DA
:101A80000DE04489013CA41A22B20489E41A611AC7
:101A900009B20AE014464289D21A511A09B20396D1
:101AA0000A46214670BCFFF747BF039670BCFFF79C
:101AB000F5BE70B4847EBDF80C60022C08D0032CF7
:101AC0000FD0012C18D10589ED1AAC1A24B20DE003
:101AD0000489013C611A4489E41AA41A09B222B2A9
:101AE0000AE014464289013A511A09B203960A469D
:101AF000214670BCFFF7D2BE039670BCFFF71CBF37
:101B0000F8B50446806A18B1A16DFEF7DDFD0CE062
:101B1000606A20B104F164030ECB00F0DBFC626C60
:101B2000616D136823EA0103136005223F492046D3
:101B3000FFF7BEFC217A01392046C9B2FFF74AFC03
:101B4000B4F90A50E66AA06A0823073595FBF3F555
:101B5000238913FB05F516FA85F540B394F8301088
:101B6000FEF725FEA06A036840211B6898470127FD
:101B7000AE4218D03E2F0DD9A06AFEF77FFE94F832
:101B80003010A06AFEF713FEA06A036840211B68AC
:101B900098470127A06A16F8011B036801371B68E4
:101BA0009847FFB2E4E7A06AFEF768FE2BE0226CDC
:101BB000236D11680B431360AE4224D0606A16F89F
:101BC000011B10B100F093FCF6E7E36B08274FF020
:101BD000800EA26BA06CD2F800C011EA0E0F14BFE9
:101BE0004CEA00002CEA000010601868E26C024326
:101BF0001A601A68E06C013F22EA00021A604FEA9C
:101C00005E0EE6D1D8E7A06A20B1E16DBDE8F840EC
:101C1000FEF75ABD626C636D1168606A0B43136016
:101C200018B1BDE8F84000F061BCF8BDD34E00002B
:101C30002DE9F04F85B01F46BDF93830BDF83CA006
:101C400015469A1A002AB8BF524200927A1A002A00
:101C5000B8BF524201920C46009A01998A428146CD
:101C600005DD3A461F46134622462C461546BC4221
:101C700005DD2A461D46134622463C4617465A1B9A
:101C8000002AC4EB0708B8BF52421FFA88F8039233
:101C900002260FFA88F292FBF6F64FF6FF729D428B
:101CA000B8BF0122B6B20292BC421FDC019A009B6F
:101CB0009342D9F80030C8BF2246D3F810B0C8BF4D
:101CC00029465346DCBF2A4621464846D847039B4F
:101CD000F61AB3B29EB2320405D5029A08EB030697
:101CE00015442DB2B6B2013424B2DDE705B0BDE82B
:101CF000F08F10B40468A468A4465DF8044B6047F4
:101D000030B40468BDF808500295246BA44630BC7A
:101D1000604730B40468BDF808500295646BA4466F
:101D200030BC604770B40468BDF90C50BDF8106059
:101D300004960395A46BA44670BC604770472DE9D8
:101D4000F3411C460368BDF82080DB680546164653
:101D5000013C34440F4624B298472B68CDF80480E8
:101D600000941C6A28463B4632463946A0472B68F9
:101D70005B6A284602B0BDE8F04118472DE9F341FF
:101D80001D460368BDF82080DB68044617460E46F2
:101D900098478DE8800122686B1E3344156A2046FF
:101DA0001BB23A463146A84723685B6A204602B018
:101DB000BDE8F04118472DE9F3471E460368BDF919
:101DC0002880DB68BDF82C900C46054617469847DE
:101DD0002644B4422A680BDACDF80090D2F818A055
:101DE000214643463A4628460134D04724B2F0E71C
:101DF000536A284602B0BDE8F047184713B5B0F95A
:101E00000E200468019100920022B0F90C30A46BFE
:101E10001146A04702B010BD2DE9F7439942904604
:101E200007460E461C46BDF92850BDF82C900268A6
:101E30000BD1A845C2BF4346A8461D466B1CCDF832
:101E40002890C8EB0303146B0CE0A84513D199420A
:101E5000C4BF0B462646CDF82890C8BF1C46631C5D
:101E6000546B9B1B1BB2424631463846A44603B016
:101E7000BDE8F0436047D36898473B688DE820028F
:101E800038461D6A424623463146A8473B685B6A8E
:101E9000384603B0BDE8F04318472DE9F3471E4626
:101EA0000368BDF82C80DB68BDF9289004460D4618
:101EB000174698472368CDF80080D3F81CA03A460F
:101EC000334629462046D0472368CDF8008009F1E3
:101ED000FF323A44D3F81CA029463346204612B2BA
:101EE000D0472368CDF80080D3F818A03A464B4677
:101EF00029462046D0472368CDF80080711E29442A
:101F000020469D693A464B4609B2A84723685B6A5A
:101F1000204602B0BDE8F0471847704701F00301C2
:101F2000012981760389428904D0032902D0838163
:101F3000C28170478281C3817047000030B5018142
:101F400000240A4D42818181C2814FF6FF71012236
:101F50004460056084760482448242760276C182BF
:101F60008182C2760477046230BD00BFEC5300006A
:101F70002DE9F04F89B09A46BDF94C300393BDF876
:101F80005030049303680292DB680191BDF94890D8
:101F9000002605469847082300963446079309F122
:101FA000070292FBF3FB009A029B03991344BDF9CD
:101FB000002091429BB229DD0AEB06021BB24FF0D2
:101FC0000008059206931FFA88F10BB24B4518DA08
:101FD0004A0703BF079A93FBF2F3059A64000CBF0C
:101FE000D45CE4B2230609D5019B069A19442B68F8
:101FF0001B6909B21F462846049BB84708F101082F
:10200000E1E7009B013300935E44CCE72B685B6AF9
:10201000284609B0BDE8F04F184770B4BDF90C4030
:10202000BDF91050BDF8146005960495039470BC7A
:10203000FFF79EBF2DE9F04F91B09046026A0391E1
:102040001E46BDF8683002930446BDF86C909DF8BA
:1020500070709DF87450002A40F0B280B0F90C30D6
:102060008B4240F33F81B0F90E30434540F33A8153
:10207000062313FB0713002B40F3348108EBC50341
:10208000002B40F32F81037F1BB9AF2E84BF013695
:10209000F6B223682046DB6898470523099300239E
:1020A00006933BB20C939DF918309049052212FB20
:1020B00006324FF0000A8A5C0592BAB20792BDF868
:1020C0000C2004920499079A03FB021292B211FAAF
:1020D00083F308921BB208220A920B93059BDA073E
:1020E00011D5012F4FFA8AF207D1012D05D12368AE
:1020F0004244D3F810B0029B13E002992368019187
:1021000002FB058217E0029B4B451DD0012F4FFAC1
:102110008AF20BD1012D09D123684244D3F810B0C3
:102120004B4612B20B992046D8470DE02368CDF8F4
:10213000049002FB05820095D3F814B0BDF920107D
:102140000C9B12B22046D847059B5B0805930A9B5F
:10215000013B0AF1010A13F0FF035FFA8AFA0A93BE
:10216000BCD1069B0133DBB20693099B013B13F004
:10217000FF03099397D1029B4B4500F0AC80012FE0
:1021800023680CD1012D0AD10499CDF800900531B6
:102190009D694246082309B22046A8479BE0079A5A
:1021A000CDF8049002EB8201049AED000A44114636
:1021B00000955D6942463B4609B22046A8478AE041
:1021C000137A516812680D92F61AF6B201EBC60343
:1021D00031F8362004929A780792DA780A92012F21
:1021E0005A7908929E7901D8012D07D99DF920309E
:1021F0009BB2069373B29BB2059302E00023059352
:10220000069323682046DB6898471FFA88F34FF04F
:102210000009099343FA86F3CB46CA460F930A9BFB
:102220005FFA89F29A4256D2059B09994B4413FBF7
:1022300005F30B440F999BB28A180C9300265B465A
:102240000E92079A96423FD25A1CD2B25B070B926B
:1022500007D1049B04990D9A01339BB212F801A097
:1022600004931AF0800F27D0012F11D1012D0FD127
:102270009DF82020039B43FA82F12368BDF93820A2
:10228000D3F81080029B314409B22046C04713E0C6
:10229000BDF81830029A019206FA83F1039B00956B
:1022A00011FB07F119442368BDF93020D3F81480DD
:1022B00009B23B462046C0474FEA4A0A01365FFA58
:1022C0008AFAF6B20B9BBCE7079B9B445FFA8BFB39
:1022D00009F10109A3E723685B6A204611B0BDE854
:1022E000F04F184711B0BDE8F08F00BF3454000024
:1022F000F0B5026A85B004460B46002A2FD10A29A0
:1023000005D10282438A427E03EBC20330E00D29ED
:102310006AD0C17E457E007E69B1B4F910600621A5
:1023200011FB0061B4F90C60B142C1BF2282628A24
:1023300002EBC50262820290E08A0190A08AB4F9A1
:1023400012200090B4F9101003952046FFF772FE9A
:10235000237E228A03EB430302EB430343E00A2973
:1023600008D100230382417E127B438A01FB0233A2
:10237000638239E00D2937D0157AA94234D3917A96
:10238000994231D351685D1BEDB201EBC505A978C7
:1023900021B3E87810B3E77E667E207E8FB195F991
:1023A00005703944B4F9107000FB0171B4F90C7078
:1023B000B94206DD00212182127B618A06FB0212EE
:1023C00062820290E08A0190A08A0090B4F9122003
:1023D000B4F9101003962046FFF72CFE2979227ECF
:1023E000238A01FB02332382012005B0F0BD0029BE
:1023F00008BF0121002A08BF0122017642767047FA
:102400000A46FFF7F4BF000038B50025057329B967
:102410000B4B0C4A0C48252101F07CFC01600B4958
:1024200051F82220027151F8233083719DF8103049
:1024300051F8233043710223C371856038BD00BF5A
:1024400071590000345900007F590000E459000020
:10245000037B23B9437383730361012303737047C1
:102460001FB50DF1100E0EE90E009DF80810026860
:1024700000230129C2F80035039B08D004D30329A7
:1024800007D143F0040304E043F0020301E043F00A
:102490000603C2F85435019BC2F824350123C2F863
:1024A000003505B05DF804FB10B5FFF7D1FF0368F8
:1024B0008279C3F808254279C3F80C250279C3F85C
:1024C0001025034BBDE810400ECBFFF7C9BF00BF7E
:1024D0003C03002010B485B001AC84E80E0094E801
:1024E0000E0005B05DF8044BFFF7BABF70470368F4
:1024F000C3F81C15D3F80821002AFBD0D3F818051F
:102500000022C3F80821C0B27047000007B5094B8C
:1025100009490A484FF080421A6000229A6002225C
:102520001A710F2300930E220D23FFF76DFF03B0E6
:102530005DF804FB3C03002000300240480300200B
:10254000F0B52DED048BB0EE409AF0EE609A3A4C67
:102550008BB000F07DF894F90030B0EE408AF0EED8
:10256000608A01330DD0B0EE490AF0EE690A00F03E
:1025700073FA30B10022002351EC190B01F022FB59
:1025800038B1B0EE480AF0EE680A0BB0BDEC048B2F
:10259000F0BD2478294B08908DED029B8DED049BB6
:1025A0000193B4B9264D4FF060440022002351EC52
:1025B000190BCDE9064501F0DDFA50B30223009373
:1025C000684600F077FAE0B901F0D0FB22230360FF
:1025D00017E01C4F00260022002351EC190BCDE917
:1025E000066701F0C7FAE0B90123022C009312D16B
:1025F00001F0BCFB21230360134800F05DFA8DED70
:10260000060B089B93B99DED060B0BB0BDEC048B3C
:10261000F0BD01230093684600F04CFA0028EBD18E
:10262000E6E702239C420093CED0C9E701F09EFB6F
:10263000089B0360E7E700BF04000020705A000019
:10264000FFFFEFC70000F0FF745A00000000000019
:102650002DE9F04F51EC100BB1F5801F85B00B4602
:1026600059DA10EE102A21F00044224300F0F880DD
:102670000029C0F280810022DD4BDE4C01F012F80F
:102680000B46A3426FF035024ADCC3F3130505F590
:10269000152404F6647404F4801686F07F541B1528
:1026A00084F44014A3F2FF3344EA05019C1800228D
:1026B000D14B00F043FEAB1CC3F31303022B04EB1E
:1026C000165482468B464FF0000232DC002301F0A4
:1026D00051FA002800F0CF80002C00F058812046ED
:1026E00000F07AFFACA3D3E9002306460F4600F0C2
:1026F000D9FFABA3D3E9002304460D463046394643
:1027000000F0D0FF02460B462046294600F018FE96
:1027100041EC100B0AE0B74CA3424FF00002B4DDCD
:1027200002460B4600F00CFE41EC100B05B0BDE874
:10273000F08F4FF0804300F003FE02460B465046F8
:10274000594601F0D9F8064620460F4600F044FFEE
:102750003246CDE900013B4630463946CDE90267B5
:1027600000F0A0FF02460B468046894600F09AFF23
:102770008DA3D3E9002306460F4600F093FF8CA3F8
:10278000D3E9002300F0DCFD32463B4600F08AFF2F
:1027900089A3D3E9002300F0D3FD32463B4600F085
:1027A00081FF87A3D3E9002300F0CAFD42464B46D0
:1027B00000F078FF84A3D3E90023804689463046A1
:1027C000394600F06FFF82A3D3E9002300F0B8FD83
:1027D00032463B4600F066FF7FA3D3E9002300F0BA
:1027E000AFFD32463B4600F05DFF0B4602464946D0
:1027F000404600F0A5FDA5F5C223C5F5D725A3F2F7
:102800007A4351351D43002D804689465CDD002208
:102810007A4B5046594600F045FF52465B4600F061
:1028200041FF06460F46002C6ED132463B464046DD
:10283000494600F085FDDDE9022300F033FF024642
:102840000B463046394600F079FD02460B465046AD
:10285000594600F073FD41EC100B05B0BDE8F08F58
:10286000002200230020664901F046F841EC100BDD
:1028700005B0BDE8F08F5AA3D3E90023504659466E
:1028800000F010FF02460B4600205C4900F056FDA8
:10289000524606460F465B465046594600F002FF38
:1028A00002460B463046394600F0FCFE06460F460F
:1028B000002C40F0A78002460B465046594600F0D7
:1028C0003DFD41EC100B31E7002C00F0AF8032A34E
:1028D000D3E90023DDE9000100F0E4FE42464B4667
:1028E00004460D465046594600F028FDDDE9022316
:1028F00000F0D8FE2AA3D3E9002306460F46DDE9FF
:10290000000100F0CFFE21E023A3D3E90023DDE99D
:10291000000100F0C7FE32463B4604460D464046E5
:10292000494600F00DFDDDE9022300F0BBFE1CA3CB
:10293000D3E9002380468946DDE9000100F0B2FEBC
:1029400002460B464046494600F0FAFC02460B465A
:102950003046394600F0F2FC52465B4600F0EEFC91
:1029600002460B462046294600F0E8FC41EC100BDD
:1029700005B0BDE8F08F10EE102A0B4600F0DEFC2B
:102980000022002300F0B8FF41EC100BCEE69FEDD3
:10299000160BCBE6AFF300800000E0FE422EE63FD0
:1029A000763C7935EF39EA3D44523EDF12F1C23FC1
:1029B000DE03CB966446C73F599322942449D23F05
:1029C000935555555555E53F9FC678D0099AC33F55
:1029D000AF788E1DC571CC3F04FA97999999D93F6C
:1029E000555555555555D53F0000000000000000D5
:1029F00000005043FFFFEF7F0000F03F0000E03F8A
:102A0000000050C3204600F0E7FD0FA3D3E90023E8
:102A10008046894600F046FE0DA3D3E90023044614
:102A20000D464046494600F03DFE8FE702460B4604
:102A30005046594600F082FCDDE9022300F032FEE8
:102A400003E700BFAFF300800000E0FE422EE63F48
:102A5000763C7935EF39EA3D53EC102B33F00041E9
:102A600010B408D01148A3F58014844208D804207B
:102A70005DF8044B70471AB902205DF8044B7047AB
:102A800003F1FF43094803F5E0038342EFD9B1F5B1
:102A9000801F01D20320EBE7054B994201D00020B3
:102AA000E6E7B2FA82F04009E2E700BFFFFFDF7F0E
:102AB0000000F07F002070479FED010B704700BFC2
:102AC000000000000000F87F0649074A074B9B1AE8
:102AD00003DD043BC858D050FBDC00F013F8FDF7D1
:102AE000E1FB00009C5B0000000000208C00002047
:102AF000FEE7FEE7FEE7FEE7FEE7FEE7FEE7FEE7AE
:102B0000FEE7FEE73A4B1A680D2A1FD01B680D2B13
:102B100026D0374B1B680D2B09D14FF08043D3F8DB
:102B20000024D20703D56FF00102C3F80024314A14
:102B3000D2F8883043F47003C2F88830BFF34F8F67
:102B4000BFF36F8F2C4B2D4A1A6070474FF08042B5
:102B50000021C2F80C11C2F81011C2F83815D5E7DF
:102B60004FF08052264BD2F80414C3F82015D2F847
:102B70000814C3F82415D2F80C14C3F82815D2F899
:102B80001014C3F82C15D2F81414C3F83015D2F869
:102B90001814C3F83415D2F81C14C3F84015D2F831
:102BA0002014C3F84415D2F82414C3F84815D2F8F9
:102BB0002814C3F84C15D2F82C14C3F85015D2F8C9
:102BC0003014C3F85415D2F83414C3F86015D2F891
:102BD0003814C3F86415D2F83C14C3F86815D2F859
:102BE0004014C3F86C15D2F84424C3F8702590E75C
:102BF0003001001000ED00E0080000200090D0033C
:102C000000C00040094B1968094B30B5D3F80405E2
:102C10000A060B0A02434FF47A71A2FB014501FB3D
:102C20000355E00B40EA454030BD00BF5C03002087
:102C30000010014038B5044648B1FFF7E3FF0546F0
:102C400000F01AF8FFF7DEFF401B8442F8D838BDC9
:102C5000074B0022C3F8042182B0D3F80431054A9F
:102C60000193019B13680133DBB2136002B070471C
:102C7000001001405C03002070470000222821D88A
:102C8000114B124A53F8203013F0200F08BF4FF0B9
:102C9000A04203F01F03032914D8DFE801F0020E5D
:102CA000060A03F5E07300210AE003F5E0730C2146
:102CB00006E003F5E073042102E003F5E07303216D
:102CC00042F82310704700BFE45900000003005091
:102CD000222813D80A4B53F820200A4B12F0200F59
:102CE00002F01F004FF0010208BF4FF0A0438240E6
:102CF00011B9C3F80C257047C3F80825704700BF09
:102D0000E4590000000300502DE9F04106460D464D
:102D100001EB02080C464445A4EB050707D03368D5
:102D200014F8011B1B68304698470028F3D1384639
:102D3000BDE8F08170B505460C46084649B101F082
:102D40000BFC2B680246214628465B68BDE87040B4
:102D5000184770BD08B5FFF7EDFF08BD03681B6895
:102D60001847000008B50249FFF7E4FF08BD00BF9F
:102D7000785A000038B50546FFF7DCFF04462846C0
:102D8000FFF7F0FF204438BDFFF7F4BFF0B58BB07C
:102D900000238DF82430012A98BF0A220DF1230563
:102DA000B1FBF2F402FB1416F3B2092E94BF3033D8
:102DB0003733DBB22F46214605F80139002CEFD11D
:102DC0003946FFF7B7FF0BB0F0BD10B42AB903685E
:102DD0005DF8044B1B68C9B21847D2B25DF8044BCA
:102DE000FFF7D4BFFFF7F1BF38B50546FFF7EDFF9A
:102DF00004462846FFF7B6FF204438BD2DE9F041D0
:102E000007460E4615462AB90368C9B21B68BDE8D5
:102E1000F04118470A2A02D1002901DA04E0D2B2AF
:102E2000BDE8F041FFF7B2BF2D21FFF797FF2A461B
:102E3000044671423846FFF7A9FF2044BDE8F081FF
:102E4000FFF7DCBF38B50546FFF7D8FF0446284634
:102E5000FFF788FF204438BD2DE9F843804657EC42
:102E6000106B0D46FFF7F8FD08B9424910E047EC3A
:102E7000106BFFF7F1FD012801D13F4908E04FF049
:102E800060423E4B3046394600F09CFE28B13C493A
:102E90004046FFF74FFFBDE8F8834FF06042394BE3
:102EA0003046394600F070FE0028F0D100220023A1
:102EB0003046394600F068FE40B12D214046FFF70C
:102EC0004DFF07F1004304461F4600E004462E492B
:102ED0004FF0000900205FFA89F39D4206D90022D5
:102EE0002A4B00F009FD09F10109F4E732463B469F
:102EF00000F026FA0F46064600F096FE0A2201462A
:102F000081464046FFF742FF04447DB3484600F047
:102F100053FB02460B463046394600F00FFA064690
:102F20000F4640461A49FFF705FF0444174B00229D
:102F30003046394600F0B6FB0F46064600F04CFE20
:102F40000A22014681464046FFF758FF044448469E
:102F500000F042FB02460B463046394600F0EEF9DF
:102F6000013D15F0FF0506460F46DFD12046BDE8BE
:102F7000F88300BF7B5A00007F5A0000FFFFEF413B
:102F8000835A0000FFFFEFC10000E03F0000244033
:102F9000274E0000C9B2FFF75FBF38B5C9B205467A
:102FA000FFF75AFF04462846FFF7DCFE204438BDF1
:102FB00010B540220446002100F03AFF00232364AC
:102FC0006364204610BD026C10B5531C446C03F0C2
:102FD0003F039C421CBF8154036410BD0023036463
:102FE00043647047436C026C93421FBFC25C013361
:102FF00003F03F03436414BF10464FF0FF307047A7
:10300000036C406C181A48BF40307047436C026C28
:10301000934214BFC05C4FF0FF307047036C406CAC
:10302000013303F03F031B1A5842584170470120F7
:10303000704703681322DB69184770470369C3F8B8
:103040001C15D3F81C21002AFBD00022C3F81C2138
:103050000120704790F85C305AB2520910B4012137
:1030600020320F4C03F01F0301FA03F344F822301F
:1030700003695DF8044B0422C3F808230022596059
:10308000D960C3F800254FF0FF32C3F80C25143087
:10309000C3F81425C3F80825C3F81025FFF79EBF11
:1030A00000E100E01430FFF7ABBF1430FFF7AEBF14
:1030B0001430FFF797BF0000026990F85E3030B51A
:1030C000C2F80C3590F85D30C2F8143590F86130D4
:1030D000012B01BF90F85F40C2F8104590F86040A6
:1030E000C2F8084518BF0023B1F5966FC2F86C35D9
:1030F0002ED9B1F5166F2ED9B1F5965F2ED9B1F54F
:10310000165F2DD9B1F5615F2CD9B1F5964F2BD94A
:10311000B1F5E14F2AD9B1F5164F29D9B1F5614F73
:1031200029D9B1F5963F29D9B1F5E13F28D9B1F5B3
:10313000613F28D9344B994228D9B1F5E12F28D9DC
:10314000B1F5612F8CBF4FF080534FF0706322E0D8
:103150004FF49E231FE04FF41D231CE02B4B1AE07D
:103160002B4B18E02B4B16E02B4B14E02B4B12E0B3
:103170004FF41D030FE04FF46B030CE0284B0AE003
:103180004FF0EB7307E04FF06C7304E04FF0806397
:1031900001E04FF0E863C2F8243500210423C2F8AF
:1031A0000035C2F80811C2F81C11012111609160AC
:1031B000C2F8043390F85C2053B2D2B202F01F057B
:1031C0005C09A9406034174D002B45F8241006DA3D
:1031D000154B02F00F02134460221A7606E003F149
:1031E000604303F56143602283F8002390F85C306C
:1031F00001215AB203F01F0301FA03F352090949EE
:1032000041F8223030BD00BF90D0030000B0130061
:103210000050270000F03A0000A04E0000C07500EA
:1032200000903A0100E100E0FCEC00E02DE9F04103
:103230001E464FF47A73002583600E4B45600446AA
:1032400040F8143B17468846FFF7B2FE0A4AC4F816
:10325000108052F8263084F85D309DF8183084F8DC
:103260005C7052F8233084F85E3084F86150204658
:10327000BDE8F081905A0000E45900000369D3F8DA
:10328000082110B504464AB1D3F818151430C9B254
:10329000FFF799FE23690022C3F8082110BD000042
:1032A0000148FFF7EBBF00BF6003002007B52223F2
:1032B00000930222212303490348FFF7B7FF03B01D
:1032C0005DF804FB0020004060030020FEE770472B
:1032D00008B500F011F8FFF7FAFF0120FFF7AAFC8C
:1032E000FDF7EEF8034CFDF719F8002CFBD0AFF317
:1032F0000080F8E7000000000D4BE02283F8112366
:103300004FF40032C3F880211A604FF0804302224C
:103310000121C3F81825996003F588330020C3F80C
:103320000805C3F80423C3F844231960704700BF9D
:1033300000E100E081F0004102E000BF83F00043C3
:1033400030B54FEA41044FEA430594EA050F08BF40
:1033500090EA020F1FBF54EA000C55EA020C7FEA04
:10336000645C7FEA655C00F0E2804FEA5454D4EB81
:103370005555B8BF6D420CDD2C4480EA020281EA4B
:10338000030382EA000083EA010180EA020281EA83
:103390000303362D88BF30BD11F0004F4FEA0131D5
:1033A0004FF4801C4CEA113102D0404261EB4101E4
:1033B00013F0004F4FEA03334CEA133302D052426A
:1033C00063EB430394EA050F00F0A780A4F1010426
:1033D000D5F1200E0DDB02FA0EFC22FA05F2801860
:1033E00041F1000103FA0EF2801843FA05F3594146
:1033F0000EE0A5F120050EF1200E012A03FA0EFCC5
:1034000028BF4CF0020C43FA05F3C01851EBE371EE
:1034100001F0004507D54FF0000EDCF1000C7EEB0B
:1034200000006EEB0101B1F5801F1BD3B1F5001F49
:103430000CD349085FEA30004FEA3C0C04F1010468
:103440004FEA445212F5800F80F09A80BCF1004F91
:1034500008BF5FEA500C50F1000041EB045141EA13
:10346000050130BD5FEA4C0C404141EB010111F414
:10347000801FA4F10104E9D191F0000F04BF0146BF
:103480000020B1FA81F308BF2033A3F10B03B3F19D
:1034900020020CDA0C3208DD02F1140CC2F10C022D
:1034A00001FA0CF021FA02F10CE002F11402D8BF8B
:1034B000C2F1200C01FA02F120FA0CFCDCBF41EA57
:1034C0000C019040E41AA2BF01EB0451294330BD26
:1034D0006FEA04041F3C1CDA0C340EDC04F1140403
:1034E000C4F1200220FA04F001FA02F340EA0300DA
:1034F00021FA04F345EA030130BDC4F10C04C4F120
:10350000200220FA02F001FA04F340EA03002946FF
:1035100030BD21FA04F0294630BD94F0000F83F449
:10352000801306BF81F480110134013D4EE77FEA2C
:10353000645C18BF7FEA655C29D094EA050F08BF78
:1035400090EA020F05D054EA000C04BF1946104659
:1035500030BD91EA030F1EBF0021002030BD5FEA9D
:10356000545C05D14000494128BF41F0004130BDC5
:1035700014F580043CBF01F5801130BD01F0004519
:1035800045F0FE4141F470014FF0000030BD7FEA8C
:10359000645C1ABF194610467FEA655C1CBF0B4687
:1035A000024650EA013406BF52EA033591EA030F9E
:1035B00041F4002130BD00BF90F0000F04BF002196
:1035C000704730B54FF4806404F132044FF00005C9
:1035D0004FF0000150E700BF90F0000F04BF002142
:1035E000704730B54FF4806404F1320410F00045A8
:1035F00048BF40424FF000013EE700BF42004FEAA3
:10360000E2014FEA31014FEA02701FBF12F07F431F
:1036100093F07F4F81F06051704792F0000F14BF1C
:1036200093F07F4F704730B54FF4607401F0004560
:1036300021F0004120E700BF50EA010208BF7047B7
:1036400030B54FF000050AE050EA010208BF7047AC
:1036500030B511F0004502D5404261EB41014FF415
:10366000806404F132045FEA915C3FF4DCAE4FF019
:1036700003025FEADC0C18BF03325FEADC0C18BF00
:10368000033202EBDC02C2F1200300FA03FC20FA51
:1036900002F001FA03FE40EA0E0021FA02F114449E
:1036A000C1E600BF70B54FF0FF0C4CF4E06C1CEAB3
:1036B00011541DBF1CEA135594EA0C0F95EA0C0F28
:1036C00000F0DEF82C4481EA030621EA4C5123EA9B
:1036D0004C5350EA013518BF52EA033541F48011CA
:1036E00043F4801338D0A0FB02CE4FF00005E1FB7D
:1036F00002E506F00042E0FB03E54FF00006E1FBC7
:1037000003569CF0000F18BF4EF0010EA4F1FF0409
:10371000B6F5007F64F5407404D25FEA4E0E6D4149
:1037200046EB060642EAC62141EA55514FEAC5205A
:1037300040EA5E504FEACE2EB4F1FD0C88BFBCF5D6
:10374000E06F1ED8BEF1004F08BF5FEA500E50F187
:10375000000041EB045170BD06F0004646EA01014D
:1037600040EA020081EA0301B4EB5C04C2BFD4EB7F
:103770000C0541EA045170BD41F480114FF0000E78
:10378000013C00F3AB8014F1360FDEBF002001F0E6
:10379000004170BDC4F10004203C35DA0C341BDC60
:1037A00004F11404C4F1200500FA05F320FA04F032
:1037B00001FA05F240EA020001F0004221F0004166
:1037C00010EBD37021FA04F642EB06015EEA430ED9
:1037D00008BF20EAD37070BDC4F10C04C4F1200509
:1037E00000FA04F320FA05F001FA04F240EA0200BC
:1037F00001F0004110EBD37041F100015EEA430E8D
:1038000008BF20EAD37070BDC4F1200500FA05F2AC
:103810004EEA020E20FA04F301FA05F243EA02032B
:1038200021FA04F001F0004121FA04F220EA02003A
:1038300000EBD3705EEA430E08BF20EAD37070BD80
:1038400094F0000F0FD101F00046400041EB010160
:1038500011F4801F08BF013CF7D041EA060195F042
:10386000000F18BF704703F00046520043EB0303FC
:1038700013F4801F08BF013DF7D043EA06037047E9
:1038800094EA0C0F0CEA135518BF95EA0C0F0CD0F4
:1038900050EA410618BF52EA4306D1D181EA03013A
:1038A00001F000414FF0000070BD50EA410606BF34
:1038B0001046194652EA430619D094EA0C0F02D179
:1038C00050EA013613D195EA0C0F05D152EA0336BE
:1038D0001CBF104619460AD181EA030101F00041DC
:1038E00041F0FE4141F470014FF0000070BD41F025
:1038F000FE4141F4780170BD70B54FF0FF0C4CF4FF
:10390000E06C1CEA11541DBF1CEA135594EA0C0F1D
:1039100095EA0C0F00F0A7F8A4EB050481EA030E6A
:1039200052EA03354FEA013100F088804FEA033351
:103930004FF0805545EA131343EA12634FEA02221F
:1039400045EA111545EA10654FEA00260EF00041E0
:103950009D4208BF964244F1FD0404F5407402D232
:103960005B084FEA3202B61A65EB03055B084FEAC3
:1039700032024FF480104FF4002CB6EB020E75EBC0
:10398000030E22BFB61A754640EA0C005B084FEAE8
:103990003202B6EB020E75EB030E22BFB61A754665
:1039A00040EA5C005B084FEA3202B6EB020E75EBB0
:1039B000030E22BFB61A754640EA9C005B084FEA28
:1039C0003202B6EB020E75EB030E22BFB61A754635
:1039D00040EADC0055EA060E18D04FEA051545EA24
:1039E00016754FEA06164FEAC30343EA52734FEACD
:1039F000C2025FEA1C1CC0D111F4801F0BD141EA46
:103A000000014FF000004FF0004CB6E711F4801FAA
:103A100004BF01430020B4F1FD0C88BFBCF5E06F8A
:103A20003FF6AFAEB5EB030C04BFB6EB020C5FEA9A
:103A3000500C50F1000041EB045170BD0EF0004EEF
:103A40004EEA113114EB5C04C2BFD4EB0C0541EA21
:103A5000045170BD41F480114FF0000E013C90E61E
:103A600045EA060E8DE60CEA135594EA0C0F08BFE2
:103A700095EA0C0F3FF43BAF94EA0C0F0AD150EAE1
:103A800001347FF434AF95EA0C0F7FF425AF104674
:103A900019462CE795EA0C0F06D152EA03353FF49C
:103AA000FDAE1046194622E750EA410618BF52EA19
:103AB00043067FF4C5AE50EA41047FF40DAF52EAED
:103AC00043057FF4EBAE12E74FF0FF3C06E000BF8A
:103AD0004FF0010C02E000BF4FF0010C4DF804CD97
:103AE0004FEA410C7FEA6C5C4FEA430C18BF7FEA57
:103AF0006C5C1BD001B050EA410C0CBF52EA430C85
:103B000091EA030F02BF90EA020F0020704710F104
:103B1000000F91EA030F58BF994208BF90422CBF93
:103B2000D8176FEAE37040F0010070474FEA410C8C
:103B30007FEA6C5C02D150EA013C07D14FEA430CAA
:103B40007FEA6C5CD6D152EA033CD3D05DF8040B1B
:103B5000704700BF8446104662468C46194663464D
:103B600000E000BF01B5FFF7B7FF002848BF10F124
:103B7000000F01BD4DF808EDFFF7F4FF0CBF012069
:103B800000205DF808FB00BF4DF808EDFFF7EAFFE5
:103B900034BF012000205DF808FB00BF4DF808EDA0
:103BA000FFF7E0FF94BF012000205DF808FB00BF95
:103BB0004DF808EDFFF7CEFF94BF012000205DF81F
:103BC00008FB00BF4DF808EDFFF7C4FF34BF01202C
:103BD00000205DF808FB00BF4FEA410212F5001219
:103BE00015D211D56FF47873B3EB625212D94FEA44
:103BF000C12343F0004343EA505311F0004F23FA2E
:103C000002F018BF404270474FF00000704750EA82
:103C1000013005D111F0004008BF6FF0004070473F
:103C20004FF00000704700BF4A0011D212F5001299
:103C300011D20DD56FF47873B3EB62520ED44FEA04
:103C4000C12343F0004343EA505323FA02F0704784
:103C50004FF00000704750EA013002D14FF0FF30C2
:103C600070474FF0000070474FEA4102B2F1E04365
:103C700024BFB3F5001CDCF1FE5C0DD901F0004C53
:103C80004FEAC0024CEA5070B2F1004F40EB8300A3
:103C900008BF20F00100704711F0804F21D113F1CF
:103CA0003872BCBF01F00040704741F480114FEA08
:103CB0005252C2F11802C2F1200C10FA0CF320FA91
:103CC00002F018BF40F001004FEAC1234FEAD323AE
:103CD00003FA0CFC40EA0C0023FA02F34FEA430318
:103CE000CCE77FEA625307D150EA01331EBF4FF0A1
:103CF000FE4040F44000704701F0004040F0FE40BC
:103D000040F40000704700BF0B460146184600F023
:103D10001FB800001FB51C46094B1B680546D86834
:103D200012B9084B1A4600E0074B02928DE80A00D0
:103D300022462B46054900F033F800F0D5FC00BFC1
:103D40006C0000207A5A0000B85A0000C55A0000E2
:103D500010B5054C13462CB10A4601460220AFF3BC
:103D6000008010BD204610BD00000000014B186807
:103D7000704700BF6C00002008B5074B044613B124
:103D80000021AFF30080054B1868836A03B19847A0
:103D9000204601F00DF800BF00000000F85A0000B6
:103DA0000EB403B5014603AB054853F8042B006875
:103DB000019300F009F902B05DF804EB03B070471D
:103DC0006C00002070B50E4B0E4CE41AA4100025B8
:103DD0001E46A54204D056F8253098470135F8E72D
:103DE00000F0E8FF084C094BE41AA41000251E4619
:103DF000A54204D056F8253098470135F8E770BD44
:103E0000700000207000002084000020700000205E
:103E1000024B0146186800F059B800BF6C00002042
:103E2000024B0146186800F00BB800BF6C00002080
:103E300002440346934202D003F8011BFAE770479D
:103E400030B500293ED051F8042C0B1F1E49002A22
:103E5000B8BF9B180A680C4612B95A600B6030BD97
:103E60009A420ED919685818824204BF10685268E5
:103E70005A6004BF09181960236030BD994203D805
:103E80000A4651680029F9D1146815199D420AD1D2
:103E90001B682344D0188142136013D1086803447F
:103EA00013604B680DE002D90C23036030BD186825
:103EB0001C18A14204BF0C684968596004BF00196E
:103EC0001860536030BD00BFC803002070B5CD1C22
:103ED00025F0030508350C2D38BF0C25002D0646AE
:103EE00003DA0C233360002070BDA942F9D81F4BC0
:103EF0001C681A462146A1B10B685B1B0ED40B2B24
:103F000003D90B60CC18CD501EE08C420DBF636806
:103F10004B686360136018BF0C4615E00C46496897
:103F2000E9E7134C23681BB9304600F005FB20601D
:103F30002946304600F000FB431CD2D0C41C24F0BC
:103F40000304A0420AD1256004F10B00231D20F0D8
:103F50000700C31A09D05A42E25070BD211A3046F8
:103F600000F0EAFA0130EED1BBE770BDC8030020D3
:103F7000C40300209368013B002B10B4936009DA5E
:103F80009469A34202DBCBB20A2B03D15DF8044B48
:103F900000F0EABA1368581C10601970C8B25DF8D6
:103FA000044B7047F8B506460F461446D518AC4288
:103FB00008D03A4614F8011B3046FFF7DBFF431CDC
:103FC000F5D100E00020F8BD2DE9F04F9DB00C4682
:103FD00017460393064618B183690BB900F07EFCBF
:103FE0007F4B9C4201D1746808E07E4B9C4201D11A
:103FF000B46803E07C4B9C4208BFF468A3891807AF
:104000000CD5236953B10023099320238DF829305F
:1040100030238DF82A30DFF8D4B144E02146304611
:1040200000F0F6FA0028EED04FF0FF30D5E0039A0A
:10403000111D12680391002A80F28C80524243F0D5
:1040400002000792049098F800302E2B00F0848034
:10405000032298F80010654800F01AFD48B140238B
:10406000CBEB000003FA00F0049B1843049008F126
:10407000010898F800105E488DF82810062208F113
:10408000010700F005FD002800F09580594B002B3A
:1040900040F08880039B073323F007030833039322
:1040A000099B53440993B846454615F8013B1BB993
:1040B000B8EB07090FD003E0252BF9D0A846F3E7AA
:1040C0004B463A4621463046FFF76CFF01307FD021
:1040D000099B4B44099398F80030002B78D00023BB
:1040E0004FF0FF3204930793059206938DF85330F7
:1040F0001A930127052229783F4800F0C9FC05F1F1
:104100000108049B38B13C4A801A07FA00F01843B2
:1041100004904546EEE7D90644BF20228DF853208F
:104120001A0744BF2B228DF853202A782A2A3FF4FD
:104130007EAF079A00210A20A846013598F8003082
:10414000303B092B03D800FB02320121F4E70029A0
:104150003FF479AF079276E798F801302A2B0BD11C
:10416000039B1A1D1B680392002BB8BF4FF0FF334F
:1041700008F1020805936BE70023059308F101009D
:1041800019460A258046013098F80020303A092A5D
:1041900003D805FB01210123F4E7002B3FF458AFBE
:1041A000059155E703AB00932246144B04A9304612
:1041B000AFF3008007E003AB009322460F4B04A946
:1041C000304600F093F8B0F1FF3F82467FF468AFCD
:1041D000A3895B063FF528AF09981DB0BDE8F08FB5
:1041E000305B0000505B0000705B0000025B000071
:1041F000065B000000000000FC5A0000A53F000024
:104200002DE9F04791461F460A698B68DDF820804A
:104210009342B8BF1346C9F8003091F843200646D0
:104220000C4612B10133C9F800302368990642BF29
:10423000D9F800300233C9F80030256815F00605BA
:1042400010D104F1190A07E00123524639463046DD
:10425000C04701301AD00135E368D9F800209B1A15
:104260009D42F1DB94F843302268003318BF0123EC
:1042700092060FD5E1185A1C302081F843002244E1
:1042800094F8451082F84310023303E04FF0FF30FA
:10429000BDE8F08704F1430239463046C04701309B
:1042A000F4D02268D9F80050E36802F00602042A2C
:1042B00008BF5D1B2269A3680CBF25EAE5750025D0
:1042C0009342C4BF9B1AED184FF000091A344D45B4
:1042D00009D00123224639463046C0470130D5D0A7
:1042E00009F10109F3E70020BDE8F0872DE9F0436B
:1042F00017460A7E85B06E2A984606460C460C9BE9
:1043000001F1430E00F0AE8011D8632A22D009D803
:10431000002A00F0BB80582A40F0CA8081F845206E
:10432000834955E0642A1ED0692A1CD0C0E0732A54
:1043300000F0B08009D86F2A2ED0702A40F0B880E3
:104340000A6842F020020A603EE0752A24D0782AEA
:104350003AD0ADE01A6801F14205111D19601368E9
:1043600084F84230A8E021681A6811F0800F02D06A
:10437000111D196008E011F0400F02F104011960ED
:1043800002D0B2F9003000E01368002B3CDA2D2295
:104390005B4284F8432037E021681A6811F0800FEF
:1043A00002D0111D196007E011F0400F02F1040165
:1043B000196001D0138800E01368227E5C496F2ADF
:1043C00014BF0A2208221BE078225A4984F84520AB
:1043D0002268186812F0800F00F104051D6003D1F7
:1043E000550601D5038800E00368D00744BF42F0BA
:1043F000200222601BB9226822F0200222601022D3
:10440000002084F8430001E049490A226568A5605C
:10441000002D08DB206820F0040020602BB9002D5F
:104420007DD175460CE0002B79D07546B3FBF2F0D8
:1044300002FB1033CB5C05F8013D03460028F5D1A3
:10444000082A0BD12368DA0708D5236962689A42E3
:10445000DEBF302305F8013C05F1FF35C5EB0E0347
:1044600023612EE008681A68496910F0800F03D0B4
:10447000101D1860136808E010F0400F02F10400EE
:104480001860136801D0198000E0196000232361CF
:10449000754616E01A68111D1960156862680021DA
:1044A000284600F0F5FA08B1401B6060636804E03C
:1044B00004F1420584F8422001232361002384F89B
:1044C0004330CDF800803B4603AA21463046FFF733
:1044D00097FE013002D14FF0FF3026E023692A46D3
:1044E00039463046C0470130F5D023689B0710D5C8
:1044F000002504F1190907E001234A4639463046F0
:10450000C0470130E7D00135E368039A9B1A9D420A
:10451000F2DBE068039B9842B8BF184605E00B78D1
:1045200084F8423004F142058AE705B0BDE8F08323
:104530000D5B00001E5B000038B5064C00230546ED
:104540000846236000F01EFC431C02D1236803B11F
:104550002B6038BDD0030020034613F8012B002A3E
:10456000FBD1181A01387047F8B50F4614460646B5
:1045700018B183690BB900F0B1F9224B9C4201D10B
:10458000746808E0204B9C4201D1B46803E01F4BE3
:104590009C4208BFF468A369A360A3891A0709D5E0
:1045A00023693BB123682069181A63699842FDB2F8
:1045B0000FDB08E02146304600F02AF80028F1D051
:1045C0004FF0FF30F8BD2146304600F01DF90028BD
:1045D000F6D1A368013BA36023685A1C22601F70B8
:1045E0006269431C934204D0A389DB0707D50A2DD7
:1045F00005D12146304600F007F90028E0D12846D1
:10460000F8BD00BF305B0000505B0000705B000035
:10461000314B70B51D6806460C4625B1AB6913B920
:10462000284600F05BF92D4B9C4201D16C6808E0F4
:104630002B4B9C4201D1AC6803E02A4B9C4208BF43
:10464000EC68A3899AB211071DD4D50602D40922B9
:10465000326038E0500712D5616B41B104F1440378
:10466000994202D03046FFF7EBFB00236363A38936
:1046700023F02403A3810023636023692360A389BB
:1046800043F00803A38123694BB9A38903F4207382
:10469000B3F5007F03D02146304600F0A9F9A38985
:1046A00013F0010205D00022A26062695242A261A9
:1046B00003E0990758BF6269A26022694AB903F012
:1046C000800080B230B143F04003A3814FF0FF304F
:1046D00070BD002070BD00BF6C000020305B00008A
:1046E000505B0000705B000008B5062000F04AFA3D
:1046F000012000F05DFB00008A892DE9F0410546AC
:1047000010070C4659D44B68002B02DC0B6C002BB5
:1047100017DDE66AAEB102F48052002392B22F6830
:104720002B600AB1606D15E0216A01232846B0476D
:10473000411C0FD12B686BB11D2B01D0162B03D15F
:104740002F600020BDE8F081A38943F04003A381DE
:10475000BDE8F081A3895A0705D56368C01A636B69
:104760000BB1236CC01A00230246E66A216A284670
:10477000B047431CA38906D129681D293AD8214A8C
:10478000CA40D60736D500226260D9042269226069
:1047900004D5421C01D12B6803B96065616B2F60A1
:1047A0000029CED004F14403994202D02846FFF7F5
:1047B00047FB00206063BDE8F0810F69002FC0D087
:1047C00093070E6808BF4B690F6018BF0023C7EB43
:1047D00006088B6002E00744C0EB0808B8F1000F40
:1047E000AFDD43463A46216AA66A2846B04700280C
:1047F000F1DCA38943F04003A3814FF0FF30BDE813
:10480000F08100BF0100402038B50B6905460C4619
:10481000DBB118B183690BB900F060F80C4B9C4216
:1048200001D16C6808E00B4B9C4201D1AC6803E0FD
:10483000094B9C4208BFEC68B4F90C302BB12146FF
:104840002846BDE83840FFF757BF002038BD00BFFD
:10485000305B0000505B0000705B0000014900F01D
:10486000A9B800BF09480000002310B50446036042
:104870004360836081814366C281036143618361D8
:10488000194608225C30FFF7D3FA054B6362054BEB
:10489000A362054BE362054B2462236310BD00BF96
:1048A000BD4B0000DF4B0000174C00003B4C0000EC
:1048B00070B568234D1E5D430E4605F17401FFF788
:1048C00005FB044640B1002180E842000C30A060A6
:1048D00005F16802FFF7ACFA204670BD836910B598
:1048E000044633BB8364C3640365124B124A1B68DE
:1048F0008262984204BF0123836100F01FF8606068
:10490000204600F01BF8A060204600F017F80022B7
:10491000E06004216068FFF7A7FF01220921A06879
:10492000FFF7A2FF02221221E068FFF79DFF01239B
:10493000A36110BDF85A00005D480000F8B51C4B9B
:104940001E68B369074613B93046FFF7C7FF4836FC
:10495000B4687368013B04D4B4F90C507DB1683479
:10496000F8E733680BB13668F2E704213846FFF701
:104970009FFF30600028F6D10C233B60F8BD4FF656
:10498000FF73E3810123A38165662560A5606560EF
:1049900025616561A5610822294604F15C00FFF7E5
:1049A00047FA6563A563A564E5642046F8BD00BFCA
:1049B000F85A00002DE9F8438046894600F1480482
:1049C000002694B1A5686768013F0CD4AB89012B20
:1049D00007D9B5F90E30013303D029464046C84700
:1049E00006436835F0E72468EBE73046BDE8F88316
:1049F000F0B58B899D0791B006460C4626D4B1F9D7
:104A00000E10002909DAA38913F0800F4FF000057A
:104A100014BF40274FF480670DE001AA00F034F97D
:104A20000028F0DB029D05F47045A5F500514D42CC
:104A30004D414FF4806739463046FFF747FA60B979
:104A4000A3899A051DD443F00203A38104F147030F
:104A5000236023610123636113E00B4BB362A389DD
:104A6000206043F08003A381206167614DB1B4F9F8
:104A70000E10304600F01AF918B1A38943F0010373
:104A8000A38111B0F0BD00BF5D4800000000000030
:104A900001F0FF01102A2BDB10F0070F08D010F8EF
:104AA000013B013A8B422DD010F0070F42B3F6D1F3
:104AB000F0B441EA012141EA014122F007047FF00C
:104AC00000070023F0E80256083C85EA010586EA63
:104AD000010685FA47F5A3FA87F586FA47F6A5FA9F
:104AE00087F68EB9EED1F0BC01F0FF0102F00702AB
:104AF00032B110F8013B013A83EA010313B1F8D156
:104B00000020704701387047002D06BF3546033836
:104B1000073815F0010F07D1013015F4807F02BF6F
:104B2000013015F4C03F0130F0BC0138704700BFC0
:104B30001F2938B504460D4604D9162303604FF0EB
:104B4000FF3038BD426C12B152F821304BB92046CB
:104B500000F032F82A4601462046BDE8384000F011
:104B600019B8012B0CD0591C03D116230360012066
:104B700038BD0024284642F825409847204638BDD5
:104B8000002038BD024B01461868FFF7D1BF00BFB7
:104B90006C00002038B5074C002305460846114636
:104BA000236000F0D7F8431C02D1236803B12B60C7
:104BB00038BD00BFD003002000F0BCB810B50C46D3
:104BC000B1F90E1000F094F80028ABBF636DA38913
:104BD0001B1823F48053ACBF6365A38110BD2DE97E
:104BE000F0411F468B89DB0505460C46164605D568
:104BF00002230022B1F90E1000F068F8A389B4F97D
:104C00000E1023F48053A38132463B462846BDE86C
:104C1000F04100F017B810B50C46B1F90E1000F0D5
:104C200055F8431CA38915BF606523F4805343F4F2
:104C30008053A38118BFA38110BDB1F90E1000F0FD
:104C400013B8000038B5074C054608461146002247
:104C500022601A4600F0A4F8431C02D1236803B175
:104C60002B6038BDD003002038B5064C0023054624
:104C70000846236000F04EF8431C02D1236803B1BC
:104C80002B6038BDD003002038B5074C0023054603
:104C900008461146236000F045F8431C02D1236802
:104CA00003B12B6038BD00BFD003002038B5064CDF
:104CB000002305460846236000F044F8431C02D157
:104CC000236803B12B6038BDD003002038B5074CF2
:104CD000054608461146002222601A4600F042F8B6
:104CE000431C02D1236803B12B6038BDD0030020E0
:104CF00038B5074C054608461146002222601A4680
:104D000000F038F8431C02D1236803B12B6038BD92
:104D1000D0030020024B58221A604FF0FF3070473A
:104D2000D0030020024B58221A604FF0FF3070472A
:104D3000D0030020024B58221A604FF0FF3070471A
:104D4000D0030020024B58221A600020704700BF99
:104D5000D0030020024B58221A604FF0FF307047FA
:104D6000D0030020024B58221A604FF0FF307047EA
:104D7000D0030020024B58221A604FF0FF307047DA
:104D8000D0030020044A05491368002B08BF0B46D6
:104D90001844106018467047CC030020D803002048
:104DA000024B58221A604FF0FF307047D0030020AA
:104DB000FEE700BFF8B500BFF8BC08BC9E467047D0
:104DC000F8B500BFF8BC08BC9E46704748656172E4
:104DD0007420726174653A0062706D202F205370E8
:104DE0004F323A0053704F322020202020202025BF
:104DF000004865617274202020202020202020207F
:104E00002062706D00426561742100496E697469A9
:104E1000616C697A696E672070756C7365206F7854
:104E2000696D657465722E2E0053534431333036EC
:104E300020616C6C6F636174696F6E206661696C70
:104E40006564004641494C4544005355434345532E
:104E50005300000000000000000000008505000075
:104E6000490500007F050000A9050000AF0500000E
:104E70007D0500004661696C656420746F20696E71
:104E8000697469616C697A65207468652048524D5F
:104E90002073656E736F7200523A002C00493A001D
:104EA00064646464636363636363626262626261D5
:104EB00061616161616060606060605F5F5F5F5FF2
:104EC0005F5E5E5E5E5E5D5D5D5D5D000103070FC2
:104ED0001F3F7F2200FF21000080C0E0F0F8FCFEB1
:104EE0000000000000000000F1220000092D000079
:104EF0009D1200003D1D0000F31C0000251D000058
:104F0000011D0000131D0000311C00003D1D0000AC
:104F10001D1F000051140000B31A0000651A0000A4
:104F2000B71D0000FD1D0000191E00009B1E0000A3
:104F30000000600000000000000000000000000011
:104F400000E0000000000000000000000000000180
:104F5000E00000000000000000000000000001F080
:104F60000000000000000000000000000003F0004E
:104F700000000000000000000000000007F000003A
:104F8000000000000000000000000007F800000022
:104F9000000000000000000000000FF80000000307
:104FA000C0007E000001E0007F0FF800000003C099
:104FB00000FE000001E000FFEFF800000003C00069
:104FC000FE000001E000FFFFF800000003C000F059
:104FD0000000000F007FFE7FC0000003C000F00053
:104FE00000000F003FFE7FF83FF1FBCFFCFEF3BC5B
:104FF0003DEFE01FFE7FFF7FFBFFDFFEFEFFBC3DBE
:10500000EFE01FC6FFFF7FFBFFDFFEFEFFBC3DEFB3
:10501000E00FE3C7FE787BC3DE1EF0FFBC3DEF0070
:1050200007FF87FC787BC3DE1EF0F83C3DEF0001F4
:10503000FFFFF0007BC3C01EF0F03C3DEF0001F32A
:105040007FE03FFBC3CFFEF0F03C3DEF0003E33FCA
:10505000807FFBC3DFFEF0F03C3DEF0007E73C0044
:10506000787BC3DE1EF0F03C3DEF0007FFBE00780A
:105070007BC3DE1EF0F03C3DEF0007FFFE00787BB7
:10508000C3DE1EF0F03C3DEF000FFFFE007FFBFF94
:10509000DFFEF0F03FFDEFE00FFFFF007FFBFFDFE3
:1050A000FEF0F03FFDEFE00FF9FF003E79F9CF9EF3
:1050B000F0F01F3DE7E01FF1FF00000000000000DE
:1050C00000000000001F80FF007FFFFFFFFFFFFFC9
:1050D000FFFFFFE01C007F007FFFFFFFFEB46D8835
:1050E0008D18E000001F007FFFFFFFFE95AD7DB52E
:1050F00077E000000F007FFFFFFFFEA5AD9D8D193B
:10510000E0000006007FFFFFFFFEB5ADEDB57EE0DD
:10511000AED580A8D300408D2000A1C8DB40A4A656
:105120002EAF000000000001800000000000000021
:105130000000038000000000000000000007C00025
:10514000000000000000000007C000000000000098
:105150000000000FC00000000000000000001FE081
:105160000000000000000000001FE0000000000040
:10517000000000003FE00000000000000000003FD1
:10518000F00000000000000000007FF000000000C0
:105190000000001FF87FF0000000000000003FFE4C
:1051A0007FF0000000000000003FFF7FF0000000E3
:1051B000000000001FFFFBE0000000000000000FE7
:1051C000FFF9FFC00000000000000FFFF9FFF8002A
:1051D000000000000007FFF1FFFF000000000000DA
:1051E00003FC73FFFF80000000000001FE3FFFFF93
:1051F00080000000000000FF1E0FFF000000000004
:1052000000007FFE1FFC000000000000003FFFFFC9
:10521000F8000000000000000FDFFFE000000000C9
:105220000000001F19FFC0000000000000003F3C0C
:10523000FF00000000000000007E7CF8000000007D
:10524000000000007FFE7C0000000000000000FF66
:10525000FFFC0000000000000000FFFFFE00000057
:105260000000000000FFFFFE000000000000000141
:10527000FFEFFE0000000000000001FFCFFE000075
:10528000000000000003FF07FE0000000000000017
:1052900003FC07FE0000000000000003F003FE0016
:1052A000000000000000018000FE0000000000007F
:1052B000000000007E000000000000000000003E32
:1052C000000000000000000000000C0000000000D2
:1052D00000078000FC000003C0000000078001FC04
:1052E000000003C0000000078001FC000003C000B4
:1052F0000000078001E00000001E000000078001A0
:10530000E00000001E007FE3F79FF9FDE7787BDFF8
:10531000C0FFF7FFBFFDFDFF787BDFC0FFF7FFBFDA
:10532000FDFDFF787BDFC0F0F787BC3DE1FF787BB8
:10533000DE00F0F787BC3DE1F0787BDE0000F78708
:10534000803DE1E0787BDE007FF7879FFDE1E0783C
:105350007BDE00FFF787BFFDE1E0787BDE00F0F742
:1053600087BC3DE1E0787BDE00F0F787BC3DE1E003
:10537000787BDE00F0F787BC3DE1E0787BDE00FF64
:10538000F7FFBFFDE1E07FFBDFC0FFF7FFBFFDE1FF
:10539000E07FFBDFC07CF3F39F3DE1E03E7BCFC0CD
:1053A0000000000000000000000000FFFFFFFFFF02
:1053B000FFFFFFFFFFC0FFFFFFFFFD68DB111A319A
:1053C000C0FFFFFFFFFD2B5AFB6AEFC0FFFFFFFF8F
:1053D000FD4B5B3B1A33C0FFFFFFFFFD6B5BDB6ADE
:1053E000FDC000000000000000000000F1220000ED
:1053F000092D0000CD3200003D1D0000F31C00000F
:10540000251D0000011D0000131D0000311C0000BF
:105410003D1D00001D1F00001B1F00003F1D000060
:105420007D1D0000B71D0000FD1D0000191E0000BD
:105430009B1E000000000000003E5B4F5B3E3E6B89
:105440004F6B3E1C3E7C3E1C183C7E3C181C577D1E
:10545000571C1C5E7F5E1C00183C1800FFE7C3E76A
:10546000FF0018241800FFE7DBE7FF30483A060E7C
:105470002629792926407F050507407F05253F5AC3
:105480003CE73C5A7F3E1C1C08081C1C3E7F142233
:105490007F22145F5F005F5F06097F017F006689DE
:1054A000956A606060606094A2FFA29408047E0424
:1054B0000810207E201008082A1C08081C2A08084A
:1054C0001E101010100C1E0C1E0C30383E3830060A
:1054D0000E3E0E06000000000000005F0000000706
:1054E000000700147F147F14242A7F2A1223130834
:1054F000646236495620500008070300001C224110
:10550000000041221C002A1C7F1C2A08083E0808B3
:105510000080703000080808080800006060002063
:10552000100804023E5149453E00427F4000724946
:105530004949462141494D331814127F10274545EA
:1055400045393C4A49493141211109073649494900
:1055500036464949291E000014000000403400006E
:1055600000081422411414141414004122140802D7
:10557000015909063E415D594E7C1211127C7F494A
:105580004949363E414141227F4141413E7F49499F
:1055900049417F090909013E414151737F080808CB
:1055A0007F00417F41002040413F017F081422419C
:1055B0007F404040407F021C027F7F0408107F3EF6
:1055C0004141413E7F090909063E4151215E7F0963
:1055D000192946264949493203017F01033F4040CA
:1055E000403F1F2040201F3F4038403F63140814B5
:1055F0006303047804036159494D43007F414141ED
:105600000204081020004141417F040201020440CD
:1056100040404040000307080020545478407F2851
:105620004444383844444428384444287F38545447
:10563000541800087E090218A4A49C787F0804046A
:105640007800447D40002040403D007F1028440009
:1056500000417F40007C047804787C08040478389A
:1056600044444438FC1824241818242418FC7C08CA
:10567000040408485454542404043F44243C404047
:10568000207C1C2040201C3C4030403C44281028FA
:10569000444C9090907C4464544C44000836410043
:1056A0000000770000004136080002010204023CBD
:1056B0002623263C1EA1A161123A4040207A38548C
:1056C0005455592155557941225454784221555405
:1056D000784020545579400C1E5272123955555558
:1056E00059395454545939555454580000457C4143
:1056F0000002457D420001457C407D1211127DF083
:10570000282528F07C545545002054547C547C0AAC
:10571000097F4932494949323A4444443A324A4875
:1057200048303A4141217A3A42402078009DA0A079
:105730007D3D4242423D3D4040403D3C24FF2424CB
:10574000487E4943662B2FFC2F2BFF0929F620C0EA
:10575000887E090320545479410000447D4130483B
:10576000484A32384040227A007A0A0A727D0D197E
:10577000317D2629292F28262929292630484D40E0
:1057800020380808080808080808382F10C8ACBADC
:105790002F102834FA00007B000008142A1422225B
:1057A000142A14085500550055AA55AA55AAFF55A4
:1057B000FF55FF000000FF00101010FF001414142C
:1057C000FF001010FF00FF1010F010F0141414FC74
:1057D000001414F700FF0000FF00FF1414F404FC91
:1057E000141417101F10101F101F1414141F001072
:1057F0001010F0000000001F101010101F101010EB
:1058000010F010000000FF101010101010101010F9
:10581000FF10000000FF140000FF00FF00001F1039
:10582000170000FC04F414141710171414F404F4F3
:105830000000FF00F714141414141414F700F714E4
:105840001414171410101F101F141414F414101033
:10585000F010F000001F101F0000001F14000000D7
:10586000FC140000F010F01010FF10FF141414FFCF
:10587000141010101F00000000F010FFFFFFFFFFCA
:10588000F0F0F0F0F0FFFFFF0000000000FFFF0F5E
:105890000F0F0F0F3844443844FC4A4A4A347E0202
:1058A000020606027E027E02635549416338444483
:1058B0003C04407E201E2006027E020299A5E7A538
:1058C000991C2A492A1C4C7201724C304A4D4D30A9
:1058D0003048784830BC625A463D3E494949007ECE
:1058E0000101017E2A2A2A2A2A44445F4444405165
:1058F0004A444040444A51400000FF0103E080FF19
:10590000000008086B6B083612362436060F090FA4
:1059100006000018180000001010003040FF0101C0
:10592000001F01011E00191D1712003C3C3C3C00E9
:1059300000000000535049436C6173733A3A53506E
:1059400049436C617373284E52465F5350495F540C
:105950007970652A2C2075696E74385F742C2075F7
:10596000696E74385F742C2075696E74385F7429A1
:1059700000705F73706920213D204E554C4C002F04
:1059800055736572732F67696C6573626F6F7468A6
:105990002F4C6962726172792F41726475696E6F02
:1059A00031352F7061636B616765732F73616E644E
:1059B0006565706D69737472792F6861726477615F
:1059C00072652F6E5246352F302E372E302F6C6970
:1059D000627261726965732F5350492F5350492E7B
:1059E000637070000200000003000000040000006B
:1059F0001F0000001C0000000E0000002500000039
:105A00000B0000000A000000090000001E0000005A
:105A1000170000000C000000110000000100000051
:105A20000D00000022000000FFFFFFFFFFFFFFFF4F
:105A30001A00000020000000150000001600000001
:105A40000F000000180000001300000024000000F8
:105A5000000000001400000005000000100000001D
:105A600008000000190000002800000006000000E7
:105A70006C6F6700000000000D0A006E616E006927
:105A80006E66006F766600000000000000000000F7
:105A90003D300000092D0000A5300000B1300000AD
:105AA000AB3000003B30000033300000B930000064
:105AB000553000002F3000002C2066756E6374692D
:105AC0006F6E3A2000617373657274696F6E202285
:105AD000257322206661696C65643A2066696C658D
