:1000000000400020F12800003129000033290000C1
:1000100000000000000000000000000000000000E0
:100020000000000000000000000000003529000072
:1000300000000000000000003729000039290000FE
:100040003B2900003B290000893000003B290000CB
:100050003B290000000000003B2900003B29000074
:100060003B2900003B2900003B2900003B29000000
:100070003B2900003B2900003B2900003B290000F0
:100080003B290000992900003B2900003B29000082
:100090003B2900003B2900003B2900003B290000D0
:1000A0003B2900003B290000000000000000000088
:1000B0000000000000000000000000000000000040
:1000C000054B0648033310B51B1A062B03D9044B06
:1000D000002B00D0984710BD8C0000208C00002021
:1000E000000000000648074910B5091A8910CB0F17
:1000F0005918491003D0044B002B00D0984710BD6D
:100100008C0000208C0000200000000010B5074C7F
:100110002378002B09D1FFF7D3FF054B002B02D02A
:10012000044800E000BF0123237010BD8C000020B4
:1001300000000000B47D0000094B10B5002B03D077
:100140000849094800E000BF08480368002B02D1B5
:10015000FFF7C8FF10BD064B002BF9D09847F7E713
:100160000000000090000020B47D00008800002006
:1001700000000000164B002B00D1144B9D4640227E
:1001800092029A1A924600218B460F461348144A4F
:10019000121A05F0E1FE0F4B002B00D098470E4BD2
:1001A000002B00D098470020002104000D000D48CE
:1001B000002802D00C4800E000BF05F093FE2000AC
:1001C000290002F079FF05F067FEC0460000080034
:1001D0000040002000000000000000008C00002013
:1001E0001403002000000000000000007047000021
:1001F000F7B5384E300000F085FE02F0A7FB364F11
:100200003B68C01AFA239B00984261D9334C3449A9
:10021000200002F027FC300000F02AFD05F002FD6E
:100220000B00022102000091200002F057FD2D4931
:10023000200002F017FC300000F01FFD01250A220B
:100240000100200002F065FC2749200002F01CFCA0
:10025000264C200001F05DF829002000257701F0F0
:10026000E4FF00232382062321496382E582A582DD
:10027000200002F013FC0023238226231D49638201
:10028000200002F00BFC0221200001F0CEFF24230D
:10029000238200233000638200F0EFFC0A22010079
:1002A000200002F03AFC24232382202330006382C2
:1002B00000F0DEFC05F0B6FC009502000B0020000B
:1002C00002F015FD200001F0DFFA02F03FFB38607C
:1002D000F7BDC04618010020C0010020A002002088
:1002E000B86E0000C46E0000DB6E0000A8000020A5
:1002F000D06E0000DD6E000030B5104B85B002936B
:100300000F4B104C019301235B42009340220E4B94
:100310008021200000F0ECFE0C4D0D492A00200049
:1003200005F07EFD0B4C200000F04EFC2A000A492F
:10033000200005F075FD05B030BDC046A086010067
:10034000801A0600A8000020C40100200000002040
:100350005511000018010020ED01000010B50849FA
:10036000084802F091FB6423074C032123820023F9
:100370002000638201F0D0FE200001F085FA10BD5C
:10038000F16E0000A0020020A800002037B5E12196
:10039000194C4902200002F0FDFC1849200002F02F
:1003A00061FB0123164D00933C220221280000F03E
:1003B000C1FF002804D11349200002F06FFBFEE7C3
:1003C000280000F0A6FFFA20800002F0D7FA0E4DB8
:1003D0000021280000F01CFC002804D10B4920005B
:1003E00002F052FBFEE70A49200002F04DFB280014
:1003F000084900F047FC37BDA0020020F76E00005E
:10040000A8000020156F0000180100202F6F0000C9
:10041000366F00005D030000F8B505000E00170000
:100420000024BC4208D02B68315D1B682800984727
:10043000002801D00134F4E72000F8BD704710B562
:100440001C3002F08CFC10BD10B51C3002F079FCA1
:1004500010BD70B5437E0D00002B05D06430040044
:1004600002F08CFC002801D0002004E020002900CC
:1004700002F058FC012070BD10B51C3002F075FC74
:1004800010BD0000F7B50193FA23002504009B007E
:1004900083600B4B4560083303601C300F0016006F
:1004A00002F035FC2000643002F031FC6B461B7911
:1004B000276166756576A5762000A375FEBDC046EA
:1004C000406F0000012330B5A024C375837D12491D
:1004D0009B005A58437DC1329B005B580F4DC1337E
:1004E000FF32FF33E40592009B0015511D51CC24CF
:1004F00003690B4A64049C500524243A9C50827D75
:1005000092005458A122D2009C50427D9200515832
:10051000044A995030BDC046D07A00000C06000055
:10052000240500000C050000A02302690020DB0068
:10053000D0500948814204D90848814204D9CD21CC
:1005400003E0CC21490401E08021C9040448115092
:100550000521D1507047C046A086010090D003000D
:1005600024050000F7B5050000200C00019382422D
:100570005CD0161E402E00D940262F001C373800B4
:1005800002F0DBFBB1222B69D20080219C500122BA
:1005900089005A50A97E002901D11A621A600024EC
:1005A000731E2A69A34206D1019B002B03D080232E
:1005B00002219B00D150012313621300FC33D96840
:1005C000002902D1996A0029F9D0996A00290AD133
:1005D000D960A323DB00D1583800C9B2013402F03E
:1005E000A1FBA642DCD8019A2B69002A04D11A008B
:1005F000FC32916A00290AD001210022AA765961B1
:100600001900FC3188680028FCD08A6007E00121CD
:10061000A976D961D16C0029FCD00021D164FC33CA
:100620009A6A002A01D000229A62E0B2FEBD10B59B
:100630000123FFF797FF10BD0300AC3310B5040092
:100640001970643002F079FB0123637610BD00005D
:10065000F8B500220D0001004276AC3103690400B8
:100660000878B121C9005850802189005A500132C0
:100670001A629A6026006436300002F070FB00288F
:100680000ED03000276902F05CFB1E4BF850236946
:10069000FC331A6A002A0CD19A6A002AF9D008E0C1
:1006A0002369002D0AD11A00FC32916A002905D174
:1006B0000EE09A6A002AF3D11A62DBE701225A613E
:1006C0001A00FC3291680029FCD00021916006E0FC
:1006D0000121D961D16C0029FCD00021D1641A001C
:1006E0000020FC32916A81420BD0074990625A582F
:1006F00002305A50824204D0043A534253410230ED
:10070000C01AF8BD1C050000C404000010B501218A
:10071000FFF79EFF10BD000010B5132314220249FD
:100720000248FFF7AFFE10BD00400040C4010020AA
:10073000030000224833006440641A807047F0B51B
:1007400005000300002048352C8884420ED0586CE8
:10075000061F07885E6440889E4202D21E003C3617
:100760005E64013C2C800F8010800120F0BD0000F1
:1007700070B50E001500084C57212000FFF75CFFF4
:1007800031002000FFF765FE29002000FFF761FE21
:100790002000FFF7BBFF70BDC401002010B50A00A8
:1007A0000621FFF7E5FF10BD10B512011143CAB2D3
:1007B0000921FFF7DDFF10BD70B50D000B4C57216F
:1007C0002000FFF739FF29002000FFF742FE00213B
:1007D0002000FFF73DFF012257212000FFF727FFF0
:1007E0002000FFF731FEC0B270BDC046C40100203A
:1007F00070B50C0007210500FFF7DEFF03230200A0
:100800009A4314432800E2B20721FFF7B1FF70BDFD
:1008100070B50C0007210500FFF7CEFF1C23020076
:10082000A4009A4314432800E2B20721FFF7A0FF77
:1008300070BD70B50D0007210400FFF7BDFF402219
:10084000002D01D0104300E09043C2B207212000E8
:10085000FFF78EFF70BD10B5FF21FFF7ADFF10BD94
:1008600070B50400124D2800FFF72CFE1149280036
:10087000FFF75AFE2000FFF7EEFF0023112815D1E5
:1008800002212000FFF78AFF03212000FFF7B0FFBD
:1008900001212000FFF7BCFFFF2209212000FFF704
:1008A00067FF01212000FFF7C4FF0123180070BD7E
:1008B000C4010020801A0600F8B50F001D00114C7D
:1008C000572120001600FFF7B7FE39002000FFF780
:1008D000C0FD00212000FFF7BBFE2A0057212000A9
:1008E000FFF7A5FE00252000FFF7A9FD002808D08E
:1008F0002000FFF7A9FD6F1CFFB2751928703D009D
:10090000F1E7F8BDC4010020F0B5022191B0050067
:10091000FFF752FF042104002800FFF74DFF241ABF
:100920000F20044033D0A3006A4605212800FFF7BA
:10093000C3FF2E006A46013CE4B2A40005346B6C90
:1009400001326C444036511E087811780002084389
:1009500051789778090204333943B34200D12B0010
:1009600018802800598048300188102906D1296C48
:10097000043129648E4206D12D6404E04F1C0780A7
:10098000002900D12B640432A242DCD16B6411B087
:10099000F0BD10B5FFF7B8FF10BD0000044A0023FA
:1009A0004260002203708260C26003617047C046EB
:1009B0000000A04110B584680021201C02F09AFCC0
:1009C00000280BD1FE20211C800502F099FE04496D
:1009D00003F060F8034903F05DF800E0002010BD6B
:1009E00000007A440000704240687047F0B5C56866
:1009F00085B004000021281C02F096FC002828D0B5
:100A0000A3680021181C019302F08EFC002820D05E
:100A1000606805F007F902900391281C05F002F9BF
:100A2000164A174B04F080FA06000F00019815498A
:100A300002F066FE05F0F6F802000B003000390007
:100A400003F04EFE02000B000298039904F0E6FC4E
:100A500006E0606805F0E6F80B4A0C4B04F064FA17
:100A600005F034F90A4D6060291C606802F048FC0A
:100A7000002800D0656005B0F0BDC04666666666B9
:100A80006666E63F00002041AE47E17A14AEEF3FD4
:100A90000000A041F8B5040000780D1C00230428D4
:100AA00000D97FE002F046FB030D2B3E750001F0FC
:100AB0004DFFFA220023D200904273D90122227006
:100AC00070E0606802F01CFC002809D03649281C40
:100AD00002F016FC002800D1334D0223656023701C
:100AE00001F034FF2369C01AFA23DB00984202D9CF
:100AF0000023A360E3602000FFF778FF07E0616850
:100B0000281C02F0FDFB002803D0032323700023E0
:100B100048E02549281C02F0F3FB002800D1224DB3
:100B20006560F4E72149281C02F074FC616802F05A
:100B3000E7FB02230028E9D00423E560237001F0DD
:100B400005FF2369C01A03F061FA0021051C02F0B9
:100B5000D1FB002818D1A06805F064F8144A154BA1
:100B600004F0E2F90600281C0F0005F05BF8124AB9
:100B7000124B04F0D9F902000B003000390003F0E9
:100B800083FA05F0A3F8A06001F0E0FE01232061E4
:100B900008E001F0DBFE2369C01AC828ABD90123A5
:100BA0002370A8E71800F8BD000048440000F04199
:100BB0009A9999999999D93F333333333333E33F32
:100BC00010B5FFF767FF10BD70B500250400057074
:100BD00045608560C56005611430FFF7DFFE0023C6
:100BE000A362E36223636363A363230008222000FC
:100BF00040331A7007325A70443000F08FF92000E9
:100C00005830FFF795FD2300A4331D60200070BD10
:100C100070B505005835040041702800FFF720FE2C
:100C2000002808D163780400002B18D00D490E4825
:100C300001F02AFF13E003212800FFF7AFFD230096
:100C400040331A7859782800FFF7AEFD00230120C1
:100C5000064AE362A26222636363207004002000FC
:100C600070BDC046606F0000A00200203333733FA8
:100C700010B51430FFF79EFE10BD10B5443000F0E3
:100C8000C9F910BDA430016070470000F0B5040040
:100C900089B00E25200004ABED1807AE2A00310004
:100CA0005830FFF74CFD002800D1CBE0308803F02E
:100CB000ADF9E76A061CA16A381C02F0EBFE011CC4
:100CC000301C02F0A7FB391CE06202F0F7FF039032
:100CD000288803F09BF9666B051C216B301C02F021
:100CE000D9FE011C281C02F095FB311C606302F048
:100CF000E5FF8022E56B039B12060490A56398181C
:100D000004F090FF504A514B04F00EF90600281CE5
:100D10000F0004F087FF4E4A4E4B04F005F9020025
:100D20000B003000390003F0AFF904F0CFFF2600CC
:100D3000011CE063281C02F06DFB1436011C071C2B
:100D40003000FFF73DFF05903000FFF733FE002134
:100D500002F0EAFA002809D0022320002370049A46
:100D6000059B0399443000F0E9F808E02378022B52
:100D700005D12000013B2370443000F0D7F865789E
:100D8000022D1BD0032D33D0012D4FD1324D3349CD
:100D9000280001F067FE07AB19880A22280001F03D
:100DA000E6FE2F49280001F05DFE0E2304AA9B18E1
:100DB00019880A22280001F0DEFE37E0264E274976
:100DC000300001F04FFE039804F02CFF0095020064
:100DD0000B00300001F082FF2149300001F042FE9B
:100DE000049804F01FFF009502000B0030001BE088
:100DF000194D1A49280001F035FE381C04F012FF85
:100E0000022702000B000097280001F067FF144939
:100E1000280001F027FE3000FFF7E6FD04F002FF96
:100E200002000B002800009701F061FF059B002BDA
:100E300000D12EE72300A4331B68002B00D128E744
:100E4000984726E709B0F0BD48457C5EEF63CF3F89
:100E50005CDDC150084EE03FA0020020846F00001E
:100E6000876F000070B5040001F070FDE368C01AE0
:100E7000FA235B0098423ED9E66A656B301C291C58
:100E800002F01CFF1C4902F04FFA002806D0220095
:100E9000403213780E2B01D801330EE0311C281C90
:100EA00002F00CFF144902F03FFA002820D0220083
:100EB00040321378002B1BD0013B13702500230018
:100EC00020004133403519782A785830FFF76CFC00
:100ED00001F03CFD63782061002B09D0074E0849E2
:100EE000300001F0BFFD29780A22300001F015FE24
:100EF00001F02CFDE06070BD00B88847A002002022
:100F0000896F000010B504005830FFF742FD200043
:100F1000FFF7BCFE2000FFF7A5FF10BD0023036014
:100F2000436000230372C3600374704700230022F0
:100F3000C36042600260037203747047F7B5040037
:100F4000081C151C1E0002F0A5FD011C206802F003
:100F500061FA291C2060281C02F09CFD616802F0E7
:100F600059FAE368051C6060581CE060002E48D008
:100F7000237A0133DBB22372032B42D103F046F80C
:100F8000011C281C02F0BCFB04F04CFE01F0ECF943
:100F90000600E0680F0003F039F8011C206802F039
:100FA000AFFB04F03FFE01F0DFF900220090019159
:100FB000144B3000390003F0B7FF009A019B03F097
:100FC0008FFB04F083FE1049051C02F0ADF90028E8
:100FD00004D0281C02F0E8F9423809E00B49281C2B
:100FE00002F0A2F9002805D0281C02F0DDF9323801
:100FF000C5B200E005002000FFF798FF044B5B5DE1
:101000002374F7BD000059400000844200004842AC
:101010008C6F0000007C7047F0B5002966DB0C2562
:10102000445F8C4262DD002A60DB0E25445F9442FF
:101030005CDD847E022C07D10489013C611A44895D
:1010400009B2013CA21A0AE0032C43D1514089B2F3
:101050004A4094B242896140013A09B2121B12B26D
:10106000012B14D0002B22D0022B3FD10725D31700
:101070002B409B180826845FDB1063435918C36A12
:101080002A405918012393400A78534020E007264C
:10109000D4173440A418324093400827C55FE410A9
:1010A0006C43C06A611841180A78134310E00725A1
:1010B000D3172B409B180826845FDB106343591815
:1010C000C36A2A405918012393401A000B789343AE
:1010D0000B700BE0012CC3D1514089B24A40048906
:1010E00012B2013C5140611A09B2B9E7F0BD0000EB
:1010F00070B50025040012B21E0009B204AB5D57A2
:1011000000F0EEFD114B124A0833236000236362A6
:101110009E4200D032002100A262FF223331E362FE
:101120000A704A708A70CA70220037321570059AA8
:10113000E366A265069A2300E2658022D205626614
:101140000222643320001A7170BDC046CC6F0000CB
:10115000C4010020054B10B5083304000360C06AC9
:10116000002801D004F0EEFE200010BDCC6F00007E
:10117000F8B50400806A0D00002812D02300303337
:101180001978FFF759FAA06A002103681B6898478D
:10119000A06A290003681B689847A06AFFF7B6FA9F
:1011A00024E0226C216D1368606A8B431360002871
:1011B00003D0290001F0AEF818E008208026E36B88
:1011C000A26BA16C17682E4201D0394301E08F4316
:1011D000390011601A68E16C01380A431A601A6814
:1011E000E16C76088A431A600028E9D1F8BD70B531
:1011F0000400806A0D00002803D0A16DFFF794F968
:101200000CE0606A002804D0616EA26EE36E01F00B
:101210007BF8626C616D13688B43136029004D1E6F
:10122000A9412000A631FFF7A3FFA06A002803D040
:10123000E16DFFF779F909E0626C616D1368606A2E
:101240000B431360002801D001F063F870BDF7B5BF
:101250000400806A8B180D000193002829D0270014
:1012600030373978FFF7E8F9A06A002103680126D2
:101270001B689847019BAB4217D03E2E0CD9A06A41
:10128000FFF744FA3978A06AFFF7D6F9A06A00217F
:10129000036801261B689847A06A2978036801360D
:1012A0001B689847F6B20135E4E7A06AFFF72EFA0B
:1012B0002EE0226C216D13688B431360019B9D42CD
:1012C00026D02B78606A0093002804D0190001F022
:1012D00021F80135F2E708208026E36BA76CA26BAA
:1012E0000099BC4617680E4202D061460F4301E0E8
:1012F00061468F4317601A68E16C01380A431A602F
:101300001A68E16C76088A431A600028E6D1E0E7A3
:10131000F7BD10B50A22835E07220733D9170A40AA
:10132000D3180821425EDB105A43C06A002104F042
:1013300013FE10BDF0B587B004930CAB1B7804000E
:101340000593C36A0E001500002B10D10A22835E9C
:1013500007220733D8171040C3180822A05EDB10FD
:10136000584304F0E5FDE062031E00D14AE120008D
:10137000FFF7CFFF0A23E25E0823E15E202A11DD9A
:10138000403AD30F52399A18CB0F591801230293C0
:101390003F335210491001931233009312B209B235
:1013A0009A4B10E0203AD30F73399A18CB0F591883
:1013B000012302931F3301935333521049100093BA
:1013C000934B12B209B2200000F000FD230031332C
:1013D0001E70A06A002812D0EBB2002D05D10A229F
:1013E000A35E203B5A1E93413C33220030321370DF
:1013F000059B002B00D100E1FFF764F851E02500C8
:101400000020353528560121270001F0D5FA0020AB
:1014100036373856012101F0CFFA00237D4E7E4A3F
:101420002664EB5601259B009B582A009A40002316
:1014300022656664FB56784A9B009B582A009A40B6
:1014400062653368606A13433360002805D0059BEA
:10145000002B26D000F03CFF23E02700002033378C
:101460002900385601F0A8FA2300002034330593F0
:101470001856290001F0A0FA0023A663FB56664A1D
:101480009B009B582A009A40059BA264E6631B7848
:10149000614A5BB29B009B589D40E5643368AB4357
:1014A0003360049B002B1DD02500002037352856C3
:1014B000002817DB012101F07FFA002001212856C6
:1014C00001F098FA012001F059FA00200021285675
:1014D00001F090FA0A2001F051FA0020012128566B
:1014E00001F088FAA06A002803D0A16DFFF71CF86C
:1014F0000CE0606A002804D0616EA26EE36E00F01A
:1015000003FF626C616D13688B43136004224349CF
:101510002000FFF79CFE618920000139C9B2FFF766
:1015200027FE25003E4904222000FFF790FE0023FD
:101530003135EB561421012B00D104392000FFF77F
:1015400017FE2600042237492000FFF780FE8F2374
:1015500060363370A368344A0227934217D0334A67
:10156000934208D10022AA56CF23012A00D1303B52
:10157000337012270BE02E4A0227934207D1002234
:10158000AA56AF23012A00D19F3B02273370DA21EC
:101590002000FFF7EDFD39002000FFF7E9FD812174
:1015A0002000FFF7E5FD31782000FFF7E1FDD921AC
:1015B0002000FFF7DDFD0023EB56F121012B00D1C8
:1015C000CF392000FFF7D4FD200006221949FFF78C
:1015D0003EFEA06A002803D0E16DFEF7A5FF0AE0F9
:1015E000626C616D1368606A0B431360012300280D
:1015F00008D000F08EFE012304E0049B002B00D1F4
:1016000073E751E7180007B0F0BDC0460E72000046
:101610001C70000008050050D07A0000FC7100002A
:101620000072000004720000800020008000400072
:101630006000100008720000F0B5150005AA1788B8
:10164000002D42DB0A24025FAA423EDD002902DAB5
:1016500059180BB2002104895E1822B2964201DDAE
:10166000631A1BB2002B30DD0726EC1734406419D7
:10167000E41062435118C26A01203540A840521854
:10168000C0B2012F04D0002F0BD0022F14D01CE0C9
:10169000013B1BB2591C18D0117801431170013263
:1016A000F6E7C043C0B2013B1BB2591C0DD0117804
:1016B000014011700132F6E7013B1BB2591C04D006
:1016C0001178414011700132F6E7F0BDF0B505AC7C
:1016D0002588002900DA83E00824065FB14200DB98
:1016E0007EE0002A02DA9B1800221BB2448927B24E
:1016F000BC46D718674501DDA31A1BB2002B6FDD6E
:10170000D2B2DCB2D30873435918C36A59180723FD
:101710001A4024D001339A1A324BD2B29B5C9442C5
:101720000AD2FF26171B3E413340012D06D0002D63
:1017300009D0022D54D10AE0012D02D10E78334395
:1017400007E0002D48D10E789E43330001E00E786B
:1017500073400B70944243D30826835FC918A31AC1
:10176000DBB2072B1DD9022D0BD11A000C78083AD9
:10177000E4430C700825445FD2B20919072AF5D852
:1017800021E02C00621E94411A006442E4B20C7005
:101790000827C65F083AD2B28919072AF7D8072264
:1017A0001340002B1CD0104AD35C012D04D0002D17
:1017B00005D0022D14D10BE00A7813430AE00A7811
:1017C0009A43130006E00722134009D0064AD35C6F
:1017D0000A7853400B7003E0022DB8D08919BEE798
:1017E000F0BDC046C46F0000B76F000037B506AC4F
:1017F0002588847E022C08D0032C0FD0012C18D110
:101800000489013CA41A24B20DE04489013CA41AC5
:1018100022B20489E41A611A09B20AE0140042896A
:10182000D21A511A09B20A0000952100FFF74EFFA3
:1018300002E00095FFF700FF37BD37B506AC2588FD
:10184000847E022C08D0032C0FD0012C18D10489DF
:10185000E41AA41A24B20DE00489013C611A4489F7
:1018600009B2E41AA41A22B20AE014004289013A29
:10187000511A09B20A0000952100FFF7DDFE02E0CF
:101880000095FFF723FF37BDF7B50400806A0028F5
:1018900003D0A16DFEF748FE0CE0606A002804D07A
:1018A000616EA26EE36E00F02FFD626C616D1368D5
:1018B0008B431360052243492000FFF7C8FC2189B0
:1018C00020000139C9B2FFF753FC0A22A35E0722A8
:1018D0000733D9170A40D3182289DB105343E56A2E
:1018E0009BB2A06AEB180193002829D0270030375B
:1018F0003978FEF7A1FEA06A4021036801261B6823
:101900009847019BAB4217D03E2E0CD9A06AFEF738
:10191000FDFE3978A06AFEF78FFEA06A40210368B9
:1019200001261B689847A06A2978036801361B685E
:101930009847F6B20135E4E7A06AFEF7E7FE2EE02D
:10194000226C216D13680B431360019B9D4226D0CE
:101950002B78606A0093002804D0190000F0DAFCAC
:101960000135F2E708208026E36BA76CA26B009993
:10197000BC4617680E4202D061460F4301E0614643
:101980008F4317601A68E16C01380A431A601A68BD
:10199000E16C76088A431A600028E6D1E0E7A06A85
:1019A000002803D0E16DFEF7BFFD09E0626C616DB8
:1019B0001368606A0B431360002801D000F0A9FC93
:1019C000F7BDC046BF6F0000F0B515000C001E004B
:1019D00089B00EAB00229B5E0FAA1288019006927E
:1019E0005A1BD11752184A400292321BD117521873
:1019F0004A4003920399029A8A4205DD32001E0092
:101A0000130022002C001500B44205DD2A001D0041
:101A10001300220034001600321B92B205925A1BAA
:101A2000D11752184A4007926A461421525ED10FCC
:101A30008A18521092B20092012204929D4201DB58
:101A4000154B0493B44224DC019B029A1B68039952
:101A50001B691F00069B8A4202DD2200290001E06B
:101A60002A0021000198B847009A079BD31A9BB21D
:101A70009AB200926A46128812B2002A06DA049AD2
:101A8000AD18059A2DB2D3189BB20093013424B23D
:101A9000D8E709B0F0BDC046FFFF000010B50468EC
:101AA000A468A04710BD37B506AC2588046800952A
:101AB000246BA04737BD37B506AC25880468009570
:101AC000646BA04737BD73B506AC0025655F07ACF6
:101AD0002688046801960095A46BA04773BD7047E3
:101AE000F0B5160004000D0085B003930AAB1F8803
:101AF0000368DB689847039B2268013B9B191BB274
:101B000000930197176A2B00320029002000B84784
:101B1000236820005B6A984705B0F0BDF0B505006A
:101B20001C000E00170085B00AAB1B88013C039314
:101B30000368A419DB68984703992A680191009704
:101B400023B23100146A28003A00A0472B6828000D
:101B50005B6A984705B0F0BDF0B50E0087B00393FF
:101B60000CAB029200229B5E050004930DAB1B8818
:101B7000340005930368DB689847039B2A68F318D1
:101B80009C420ADA059B210000939769049B029A04
:101B900028000134B84724B2EFE7536A2800984779
:101BA00007B0F0BD13B501910E24015F0C22835ED6
:101BB00002680091946B00221100A04713BDF0B59C
:101BC00085B002930AAB00241C5F0BAB1B88170087
:101BD0000393029B05000E1E02689E420BD1A74292
:101BE00002DD3B0027001C0003990134E31B009138
:101BF0001BB2146B0DE0A74210D1029B994201DD8C
:101C0000029E0291029B0399013300919B1B546B2E
:101C10001BB23A0031002800A0470FE0D368984774
:101C2000039A2B68019200941C6A2800029B3A00D8
:101C30003100A0472B6828005B6A984705B0F0BDCB
:101C4000F0B5040016000D0087B004930CAB002221
:101C50009B5E05930DAB1B8803930368DB68984775
:101C6000039A23680092DF693200049B2900200058
:101C7000B847059B03995A1E236800919219DF69A2
:101C80002900049B200012B2B847039A23680092EF
:101C90009F693200059B29002000B8470499039AE8
:101CA0002368013900924D1929B29F693200059BC2
:101CB0002000B847236820005B6A984707B0F0BD52
:101CC000704703231940817603894289012904D092
:101CD000032902D08381C28101E08281C3817047E0
:101CE00001818181012100234281C281012210B53D
:101CF000074C494208344360046083760382438280
:101D000042760276C1828182C2760377036210BD79
:101D1000D0740000F0B500278DB0099312AB049287
:101D200000229B5E0891059313AB00229B5E04008A
:101D30000A9314AB1B883D000B930368DB6898473C
:101D40000721059B06910733DA170A40D318DB10E9
:101D50000793049B01936B46049A9B8803939B1AF9
:101D60000A9A1BB29A422BDD002302936B46198913
:101D7000059A0BB293421CDA069A6D00EDB211423D
:101D800007D10698DA170240D318099ADB10D21946
:101D9000D55C6BB2002B09DA089B019AC91823683D
:101DA00009B21B6920001E000B9BB047029B013348
:101DB000DBE7039B01331BB20193079BFF18CAE7C4
:101DC000236820005B6A98470DB0F0BD7FB508AC72
:101DD0000025645F09AD0026AD5F0AAE3688019527
:101DE00002960094FFF796FF7FBD0000F0B595B016
:101DF0001E001AAB1B88040004931BAB1D881CAB90
:101E00001F781DAB1B7806910293036A0392002B87
:101E100000D0D1E00C22835E8B4200DC77E10E2201
:101E2000835E039A934200DC71E106237B435B18D7
:101E3000002B00DC6BE1029B039ADB009B18002B5C
:101E400000DC64E1037F002B03D1AF2E01D9013602
:101E5000F6B223682000DB68984705235E430B93A6
:101E600000230E960A9328226B469B181B78A94ADA
:101E70000E995BB25218D25C9BB20893BBB20F931F
:101E80006B461B8B09920593089BBAB25343059A84
:101E9000D3189BB20D9308230C93002307930122C0
:101EA000099B134220D06B461C229A56012F0DD15C
:101EB000029B012B0AD1039B0599D218089B12B2F1
:101EC0005918236809B21E69049B22E00299049EF6
:101ED0004A4303993BB2521869463420095E206890
:101EE00012B21090019623E0049BAB4228D06B46BF
:101EF0001C229A56012F0FD1029B012B0CD1039B60
:101F00000599D218089B12B25918236809B21E69A4
:101F10002B002000B04713E002993BB24A430399DB
:101F2000521869463420095E206812B2109001955B
:101F300068460826865F1098009646692000B047DC
:101F4000079B0133DBB20793099B5B0809930C9B4A
:101F5000013BDBB20C93002BA1D10A9B0133DBB216
:101F60000A930B9B013BDBB20B93002B00D07AE76B
:101F7000049BAB4200D1C6E02268012F0CD1029B2A
:101F8000012B09D1059F00950537956939B20733B3
:101F9000039A2000A847B6E005210F983BB24143C1
:101FA000059801954718029839B2C000009055690C
:101FB0002000039AA847A6E01A7AB61AF6B25A6821
:101FC000F6001B689619139333880893B3780C9323
:101FD000F378109373790D93B3790E93012F02D890
:101FE000029B012B0ED934226B469B181B780432BE
:101FF0005BB29BB20A936B469B181B785BB29BB299
:102000000B9302E000230B930A9300252368200022
:10201000DB68984709950795109AEBB2934272D204
:102020006B469B89029A0F930B9BEB1853430F9AB5
:10203000D31800229BB21293099B05920C9A059922
:10204000914257D25A1CD2B211920722134207D1A1
:10205000089B0899139A0133525C9BB2079208932C
:102060006B461B7F5BB2002B3ADA012F1ED1029B1D
:10207000012B1BD16B4638229B1800229A560F9BCE
:1020800034219A18FF232B40D2186B465B1800218D
:102090005956069B12B2C918059B2000C91823681F
:1020A00009B21B691E00049BB04719E048216A462B
:1020B00052180021525E69462820095E05983BB2FD
:1020C0000918794306980918049809B201906846DE
:1020D0000826805F00902068406906002000B04715
:1020E000079B059E5B00DBB201360793F3B20593B5
:1020F000119BA3E70C9A099B94466344DBB201351C
:102100000993ADB288E7236820005B6A984715B051
:10211000F0BDC04620750000F0B5026A85B004002D
:102120000B00002A2AD10A2903D1437E0282DB0058
:102130002BE00D296BD0C17E457E007E00290DD09D
:10214000062141431027E65F89190C27E65FB1425B
:1021500004DD618A2282EA00521862820290E08ADB
:102160001221625E0190A08A1026A15F0090039563
:102170002000FFF73BFE237E062244E00A2908D117
:1021800000230382127B437E5343628A9B1863823F
:102190003DE00D293BD0157AA94238D3917A994276
:1021A00035D35D1B5168EDB2ED004D19A9780029BA
:1021B00027D0E878002824D0E77E667E207E002F96
:1021C00012D00527EF57791841438C461021675EDE
:1021D000BC440C21675EBC4506DD00212182127BD8
:1021E000618A7243521862820290E08A1221625E12
:1021F0000190A08A1027E15F009003962000FFF76E
:10220000F5FD2B79227E5343228A9B1823820120DD
:1022100005B0F0BD0123002900D00B000376012397
:10222000002A00D013004376704710B50A00FFF76C
:10223000F1FF10BD70B5002504AC24780573A942E8
:1022400005D10A4B0A4A25210A4803F0F1FD016035
:102250000949920052589B0002715B588371A30098
:102260005B58856043710223C37170BD5D7A0000C5
:10227000207A00006B7A0000D07A0000037B002BEC
:1022800004D1437383730361013303737047000008
:102290001FB50191A02100240068C900D2B24450AA
:1022A000012A07D0A24203D0032A05D1042202E06A
:1022B000022200E006221343034A8350034B019A93
:1022C000C250012343501FBD5405000024050000E7
:1022D00010B50400FFF7D2FFA1222368A179D20034
:1022E00099506179064A2000995021790432995019
:1022F000044B19685A689B68FFF7CAFF10BDC046B7
:102300000C0500007C0200201FB5FFF7C1FF05B0DF
:1023100000BD70470368074A99501A00FC32D16823
:102320000029FCD0A321C90058580023C0B2D360B3
:102330007047C0461C05000007B58022074BD20538
:102340001A6000229A6002321A710F230C32009335
:102350000349023B0348FFF76DFF07BD7C020020E5
:102360000030004088020020F0B5474680B48CB0B1
:1023700004000D0000F084F80F00002106003B4B24
:102380003200595698463B00013111D020002900F7
:1023900000F078FA32003B00002809D00022002328
:1023A0002000290000F086FF32003B00002805D005
:1023B000100019000CB004BC9046F0BD2C4B0A90E4
:1023C000039343461E780494059506940795002EC2
:1023D00018D1E022274B1206089209932000002210
:1023E0000023290000F04CFF00282BD00223029389
:1023F00002A800F075FA00281DD103F047FD222342
:10240000036018E000221C4B200008920993290069
:102410000022002300F034FF00281BD10123029387
:10242000022E11D103F032FD21230360134800F086
:1024300059FA089009910A9B0193002B0FD1089A31
:10244000099BB5E70123029302A800F049FA00288E
:10245000ECD1E7E702230293022ECED0C8E703F0C7
:1024600015FD0A9B01930360E9E7C04604000020C4
:10247000547B0000FFFFEFC70000F0FF587B000017
:10248000F0B557464E464546E0B4DA4A88B00B1ED2
:10249000934255DC4A005208024300D1EFE0002984
:1024A00000DA79E1D44B002202F03EFD3625D34C10
:1024B0000B006D42A34247DC1A151B031B0B984609
:1024C000CF4C8023A446CF4C5B0344442340CE4CE6
:1024D000624452195C4045461B1599462543CA4B38
:1024E00029009144002202F099FF434602331B0366
:1024F00006000F001B0B0022022B2FDC002300F034
:10250000BFFE002800D1C1E04B46002B00D14CE1BA
:10251000484603F00DFBBD4ABD4B04000D0002F020
:1025200003FDBC4A06000F00BB4B2000290002F04F
:10253000FBFC02000B003000390001F0A5FD07E0B4
:10254000AE4C0025A342B7DD02000B0001F09CFD5C
:1025500008B01CBC90469946A246F0BD8023DB051E
:1025600001F092FD02000B003000390002F0B8F8D3
:10257000040048460D0003F0DBFA220002900391AC
:102580002B00200029000494059502F0CDFC0400E6
:102590000D00A24B020043449A460B0000940195A3
:1025A00002F0C2FC04000D009D4A9E4B02F0BCFCF0
:1025B0009D4A9E4B01F068FD22002B0002F0B4FC06
:1025C0009B4A9C4B01F060FD22002B0002F0ACFC0A
:1025D000994A9A4B01F058FD009A019B02F0A4FC25
:1025E000974A00900191974B2000290002F09CFC33
:1025F000954A964B01F048FD22002B0002F094FC16
:10260000934A944B01F040FD22002B0002F08CFC19
:102610000B0002000098019901F036FD0D004146C3
:102620008D4B04005B1A51460B43002B54DD0022F6
:102630008A4B3000390002F077FC32003B0002F098
:1026400073FC4B460A00010000910192002B72D1ED
:10265000130029000200200001F016FD049A059BDA
:1026600002F062FC02000B000098019902F0D6FE15
:1026700002000B003000390002F0D0FE68E70022B3
:1026800000230020764902F02BF861E7754A764B6B
:102690003000390002F048FC02000B0000206F49B6
:1026A00002F0BCFE320004000D003B003000390097
:1026B00002F03AFC0B0002002900200002F034FC7A
:1026C0004B4604000D00002B72D102000B003000BD
:1026D000390002F0A3FE3BE74B46002B00D1C5E0DA
:1026E00002980399494A4A4B02F01EFC22000090CE
:1026F00001912B003000390002F090FE049A059BF6
:1027000002F012FC434A04000D0002980399424B68
:1027100002F00AFC02000B002000290002F07EFEFD
:1027200032003B0002F07AFE02000B000098019993
:1027300002F074FE0CE7354A354B0298039902F01B
:10274000F3FB009A019B069007912000290001F0FD
:102750009BFC049A059B02F0E7FB2E4A04000D0047
:10276000029803992C4B02F0DFFB02000B002000C3
:10277000290001F089FC02000B000098019902F089
:102780004DFE32003B0002F049FE02000B000698AD
:10279000079902F043FEDBE602000B0002F03EFE6A
:1027A0000022002301F09CFFD2E600200021CFE6AA
:1027B000484603F0BDF9154A154B0090019102F00F
:1027C000B3FB144A0290039100980199124B02F056
:1027D000ABFB02000B002000290002F01FFE3200BC
:1027E0003B0002F01BFE02000B000298039902F06E
:1027F00015FEADE6FFFF0F0000005043FFFFEF7F27
:1028000001FCFFFF645F09000000F03F0000E0FEF4
:10281000422EE63F763C7935EF39EA3D86EBF9FF0B
:1028200044523EDF12F1C23FDE03CB966446C73FFF
:10283000599322942449D23F935555555555E53F18
:102840009FC678D0099AC33FAF788E1DC571CC3F23
:1028500004FA97999999D93F51B806000000E03FD2
:10286000000050C3555555555555D53F22002B00F6
:102870003000390002F0D2FD049A059B02F054FBAF
:10288000F6E6C0460A000300024330B50220002AE3
:1028900000D130BD80221206914216D00C4A0D4C58
:1028A0008A180420A242F4D90B4A8A18A242F0D90D
:1028B0000A4A4900490803209142EAD9064A002001
:1028C0009142E6D158425841E3E7002BE1D0EFE7CF
:1028D0000000F0FFFFFFDF7F0000F07FFFFF0F0031
:1028E00000207047002001497047C0460000F87F73
:1028F00003210A4802680A430260094802680A4341
:1029000002600849084A094B9B1A03DD043BC8587A
:10291000D050FBDC00F012F8FDF72CFC2405004041
:1029200054050040C07D0000000000208C00002005
:10293000FEE7FEE7FEE7FEE7FEE7FEE7014A024BA1
:102940001A6070470024F40008000020084A094972
:10295000094B10B51B688858FA22190A1B06184340
:102960009200002300F0F4FC4904C00B084310BDA2
:1029700004050000001001409C02002070B5041EF8
:1029800009D0FFF7E3FF050000F014F8FFF7DEFFC2
:10299000401B8442F8D870BD0022044B9A60044A60
:1029A00013680133DBB213607047C046FC1001406E
:1029B0009C0200207047000000B5202816D80C4A61
:1029C00083009B58032911D8A0220800C133FF338C
:1029D000D2059B0000F0AEFB02080406002104E0D3
:1029E0000C2102E0042100E00321D15000BDC046CB
:1029F000D07A000020280DD8074B8000C258012350
:102A00009340A022D205002901D1044901E0A1216F
:102A1000C90053507047C046D07A00000C05000032
:102A2000F7B506000D000C008B180193019B671B86
:102A30009C4207D0336821781B68300098470134E6
:102A40000028F3D13800FEBD70B505000C00081E4B
:102A500007D003F00BFE2B6802005B682100280002
:102A6000984770BD10B5FFF7EFFF10BD10B50368B4
:102A70001B68984710BD000010B50249FFF7E4FF3E
:102A800010BDC0465C7B000070B50500FFF7DCFFA1
:102A900004002800FFF7F0FF001970BD10B5FFF724
:102AA000F3FF10BDF0B5160000228DB002AB053368
:102AB00001900D00DA77012E00D80A260BAC280011
:102AC000310000F0C7FB0F00CBB2280031000093AB
:102AD00000F03AFBFBB237330500013CDBB2092FB3
:102AE00002D8009B3033DBB22370002DE7D12100E8
:102AF0000198FFF7A9FF0DB0F0BD10B5002A04D171
:102B00000368C9B21B68984702E0D2B2FFF7CAFF58
:102B100010BD10B5FFF7F1FF10BD70B50500FFF750
:102B2000ECFF04002800FFF7A7FF001970BDF8B5FF
:102B300006000C00151E04D10368C9B21B68984733
:102B400014E0D2B20A2D0DD12A0000290ADA2D2173
:102B5000FFF78CFF614207002A003000FFF7A2FF59
:102B6000381803E021003000FFF79CFFF8BD10B5D6
:102B7000FFF7DDFF10BD70B50500FFF7D8FF0400BB
:102B80002800FFF779FF001970BD0000F0B51E00A6
:102B900085B00AAB1B7831000500100017000293C6
:102BA000FFF770FE4549002806D038003100FFF7D6
:102BB00069FE012804D142492800FFF745FF7BE068
:102BC000E022404B12063800310000F073FB002871
:102BD00001D03D49F0E7E0223C4B120638003100BD
:102BE00000F054FB0028F4D100220023380031000B
:102BF00000F04CFB002808D02D212800FFF736FFFD
:102C000080231B060190F61800E0019000240020AC
:102C10002F49029BA34206D000222E4B013401F023
:102C20005FFDE4B2F5E733003A0001F02DFA0F0042
:102C3000060000F0D1FB0A22039001002800FFF7F4
:102C400031FF019BC418029B2000002B34D0039855
:102C500002F0B0FF0B0002003900300002F0DEFB92
:102C600006000F0028001C49FFF7EEFE2318029C07
:102C70000193184B00223000390002F055F90F0083
:102C8000060002F01FFF0A22010002902800FFF751
:102C90004EFF019B013C1B180298019302F048FF74
:102CA00002000B003000390002F0B8FBE4B206006D
:102CB0000F00002CDDD1019805B0F0BD5F7B000056
:102CC000637B0000FFFFEF41677B0000FFFFEFC168
:102CD0000000E03F00002440136F000037B51D00E6
:102CE000069BDBB200932B00FFF750FF3EBD37B5CC
:102CF00019000500069B2800DBB200930B00FFF7CC
:102D000045FF04002800FFF7B7FE00193EBD10B5CF
:102D100040220021040003F01FF900232000236457
:102D2000636410BD3F23026C10B5541C2340446CF7
:102D30009C4201D08154036410BD002303644364AA
:102D40007047436C026C934206D03F21C25C013352
:102D50000B404364100001E0012040427047036CC7
:102D6000406C181A00D540307047436C026C934297
:102D700001D0C05C01E0012040427047036C406C10
:102D80005A1C3F231340181A42424241D0B27047A6
:102D90000120704710B503681322DB69984710BD06
:102DA000704700000369054A9950FC331A6A002AEB
:102DB000FCD0002201201A627047C0461C050000AA
:102DC000030010B55C331A781F2313400122110051
:102DD00099400D4B0424D967C221036989005C50D6
:102DE0005A60DA60A0220021D200995001220749DE
:102DF00052425A50064914305A500C395A50083130
:102E00005A50FFF79AFF10BD04E100E00C050000E6
:102E10001405000010B51430FFF7A1FF10BD10B568
:102E20001430FFF7A2FF10BD10B51430FFF789FF73
:102E300010BD0000030070B55E331C780269604B62
:102E4000D45003005D331C785E4BD45003006133D3
:102E50001C785D4B012C0CD105005F352E78A22526
:102E6000ED005651050060352E78A125ED00565134
:102E700000E00024D4509623DB00994238D99623F1
:102E80001B01994237D996235B01994236D9962383
:102E90009B01994234D9E1239B01994232D996236F
:102EA000DB01994231D9E123DB0199422FD99623E5
:102EB0001B0299422DD9E1231B0299422BD996235B
:102EC0005B02994229D9E1235B02994227D9E12388
:102ED0009B02994225D93D4B994224D9E123DB023B
:102EE000994223D9E1231B03994221D8384B21E091
:102EF0009E23DB021EE09D231B031BE0354B19E0E4
:102F0000354B17E0EC239B0314E0344B12E0344BB9
:102F100010E0344B0EE0344B0CE0344B0AE0344B01
:102F200008E0344B06E08023DB0403E0324B01E091
:102F300080235B0531490024535004232439535026
:102F40001100FC31CC600C62C12101348900146095
:102F50005C309460535003781F202200D9B208409F
:102F6000824080342648FF345BB20251002B13DAD2
:102F70000F230B40083B234C9B089B001B19032489
:102F80002140A140FC348C40DD69A543C0248C4025
:102F900021002943D96111E0194C9B089B001B19A2
:102FA00003242140A140C025FC348C40AD005E5973
:102FB000A643C0248C40210031435951026070BDAA
:102FC0000C050000140500006C05000090D0030003
:102FD00000D0BE0E00B013000050270000A04E002D
:102FE00000F0750000509D0000F0EB0000903A01E9
:102FF00000E0D70100B0AF0300705F0724050000B8
:1030000000E100E000ED00E0F7B5009308AB1B78AD
:1030100000250193FA2304009B0083600E4B45605A
:103020000833036014300F001600FFF770FE230012
:103030005C3327611E70009B084A9B00995823004F
:103040005D331970019B20009B009A5823005E336A
:10305000DD701A70FEBDC0466C7B0000D07A0000A7
:10306000036910B51A00FC32D2680400002A0AD0A5
:10307000A322D20099581430C9B2FFF753FE0022A0
:103080002369FC33DA6010BD10B50248FFF7E8FF92
:1030900010BDC046A0020020162307B502220093EF
:1030A0000249013B0248FFF7AFFF07BD0020004087
:1030B000A0020020FEE7704710B500F011F8FFF7FE
:1030C000FAFF0120FFF75AFCFDF760F9FDF790F8D1
:1030D000024B002BFAD000E000BFF7E70000000031
:1030E000C421114A89005058104B0340C0200002EF
:1030F00003435350802391399B02FF39535013608F
:103100008023A3220021DB05D20099500122A120B7
:103110009A60074BC0001950C1200231800019503D
:10312000403019501A60704700E100E0FF00FFFFD7
:103130000010014002B4714649084900095C490089
:103140008E4402BC7047C046002243088B4274D3B1
:1031500003098B425FD3030A8B4244D3030B8B4298
:1031600028D3030C8B420DD3FF22090212BA030CA1
:103170008B4202D31212090265D0030B8B4219D382
:1031800000E0090AC30B8B4201D3CB03C01A5241A2
:10319000830B8B4201D38B03C01A5241430B8B42EA
:1031A00001D34B03C01A5241030B8B4201D30B03D3
:1031B000C01A5241C30A8B4201D3CB02C01A5241FA
:1031C000830A8B4201D38B02C01A5241430A8B42BD
:1031D00001D34B02C01A5241030A8B4201D30B02A6
:1031E000C01A5241CDD2C3098B4201D3CB01C01AC0
:1031F000524183098B4201D38B01C01A52414309CA
:103200008B4201D34B01C01A524103098B4201D3B7
:103210000B01C01A5241C3088B4201D3CB00C01A24
:10322000524183088B4201D38B00C01A524143089C
:103230008B4201D34B00C01A5241411A00D20146C1
:10324000524110467047FFE701B5002000F006F834
:1032500002BDC0460029F7D076E770477047C046E8
:103260008446101C62468C46191C634600E0C0462A
:103270001FB501F0EFFD002801D40021C8421FBD99
:1032800010B501F043FD4042013010BD10B501F012
:10329000E1FD002801DB002010BD012010BDC0466B
:1032A00010B501F0D7FD002801DD002010BD012080
:1032B00010BDC04610B501F069FD002801DC0020FA
:1032C00010BD012010BDC04610B501F05FFD002803
:1032D00001DA002010BD012010BDC0468446081C44
:1032E0006146FFE71FB500F091FB002801D40021E3
:1032F000C8421FBD10B500F01DFB4042013010BD9B
:1033000010B500F083FB002801DB002010BD012078
:1033100010BDC04610B500F079FB002801DD00208B
:1033200010BD012010BDC04610B500F02BFB0028D9
:1033300001DC002010BD012010BDC04610B500F01A
:1033400021FB002801DA002010BD012010BDC0467D
:10335000F0B54F464646C0B41604360C99463300C5
:1033600005042C0C070C150C63437E436F43654327
:103370001C0CAD1964199C46A64203D980235B023C
:10338000984647446346250CEF191D044B464A43B3
:1033900043432D0C240464199918C91920000CBC4E
:1033A00090469946F0BDC0469E2110B5C905041C43
:1033B000FFF7C4FF002803D1201C00F005FE10BD5C
:1033C0009E21201CC90500F079FC00F0FDFD802342
:1033D0001B069C466044F2E770B500220C4B0400CB
:1033E0000D00FFF771FF002804D12000290002F032
:1033F00069FB70BD064B00222000290002F00EF888
:1034000002F060FB80231B069C466044F1E7C04647
:103410000000E041F8B54A02430244004E00C50FE7
:10342000240E28009B09360EC90F92098D4259D0EF
:10343000A01B002800DC8DE0002E1AD1002A00D04D
:1034400079E05A0704D00F221A40042A00D004332E
:103450005A0138D50134FF2C00D189E028009B01A6
:103460005B0AE4B25B02E4055B0A2343C00718432E
:10347000F8BDFF2CE5D08021C9040A431B2800DDDC
:1034800089E016002021C640081A8240511E8A4158
:1034900032439B1A5A0114D59B019E09300002F059
:1034A000A1FC05388640844265DC041B33002020E3
:1034B0000134E340041BA640721E964100243343AE
:1034C000BFE75A07BFD1DF082800FF2C2FD1002FFC
:1034D00000D187E08022D20313003B435B025B0AEA
:1034E000FF24BFE7A11B002949DD002E29D0FF2CB6
:1034F000A7D08026F60432431B2900DD8DE017009B
:103500002026CF40711A8A40511E8A413A439B18A7
:103510005A01D6D50134FF2C64D0012276491A40D5
:103520005B080B4013438CE7031ECAD100207B02CB
:103530005B0AE4B296E701380028AAD0FF2C9DD19F
:103540007FE7002A00D17CE701390029DFD0FF2C7A
:10355000D2D176E7002820D1601CC0B2012853DD0B
:1035600080279E1AFF0437402FD0D61A0D0095E70A
:103570002800002376E7614B241A334061E70029D5
:103580004DD1611CCEB2012E2FDDFF292AD09B1810
:103590005B080C0055E701227BE7002C1BD1002BB8
:1035A0005BD0C04300280CD0FF2E7ED01B2800DD4E
:1035B00092E01D002024C540201A8340581E8341FC
:1035C0002B43D31A34000D0064E7002E00D065E7CA
:1035D00000200024ABE7FF2E67D08024E4044042A3
:1035E0002343E3E7FF2400233CE7002C61D1002BB9
:1035F0007ED0002A00D124E79B185A0100D460E74E
:103600003E4A0C0013401CE7002C1ED1002B2FD18A
:10361000002A66D013000D0013E7012277E7002C83
:103620001FD1002B5AD0C94300290BD0FF2E50D0F8
:103630001B295FDC1F002024CF40611A8B40591EDC
:103640008B413B439B18340062E7002B1CD1002ABE
:103650004AD013000D00FF24F3E6130034000D00E0
:10366000EFE6FF2E35D08024E40449422343DFE710
:10367000002A00D1E5E68027981AFF04074000D110
:1036800052E7D31A0D00DCE6FF24002A00D1D8E669
:103690008020DB08C003034204D0D208024201D1DB
:1036A00013000D00DB00FF24CBE61300FF240D0008
:1036B000C7E6002B0DD0FF24002A00D1C1E68021EF
:1036C000DB08C9030B42EDD0D2080A42EAD113004D
:1036D000E8E71300FF24B4E6012372E71300340087
:1036E000AFE60027002022E780270020FF03F1E655
:1036F0001300A6E60123A5E7FFFFFF7DFFFFFFFB09
:10370000F0B5564644465F464D46F0B44402460086
:10371000C70F83B08846650A360EBA463DD0FF2EE5
:1037200022D00023EC00802599469B46ED042543DA
:103730007F3E43465C025800DB0F640A000E984649
:1037400036D0FF2830D080230021E400DB041C4366
:103750007F38301A0190484642460843724E800036
:1037600030587A4013008746002D44D108239946EB
:10377000063B9B46DDE70122FF2000241A4064023D
:10378000C305640AD2071C431443200003B03CBCA9
:1037900090469946A246AB46F0BD002D20D10423A9
:1037A0009946033B9B46C4E7002C17D1022102E057
:1037B000002C0AD10121321A01924A4643460A439B
:1037C0005A48920082587B409746200002F00AFB3C
:1037D000431F76309C4040420021BAE70321B8E7FE
:1037E000280002F0FFFA431F9D4000237630464236
:1037F00099469B469DE70C239946093B9B4698E7D3
:1038000080240022E403FF20B9E70024C2468B464F
:103810005A465346022AAED0032A7DD0012A31D11E
:10382000012200201A400024A9E70122101A1B28B7
:1038300056DD1A4000200024A1E78023DB031D424F
:103840004BD18023DB032B435C02640A3A00FF2048
:1038500095E76D016001854230D2019A0024013A5A
:1038600001921B220127290064006D00002901DB61
:10387000A84201D82D1A3C43013A002AF3D16A1E0E
:1038800095412C4301987F300028CEDD620704D09B
:103890000F222240042A00D00434220103D5244AF6
:1038A000019814408030FE2800DD64E70122A40165
:1038B000640AC0B21A4062E72C00A9E72D1A1A2246
:1038C0000124CFE76B02BCD500248023DB031C431B
:1038D0006402640A4246FF2051E71C42B3D1F4E778
:1038E00021002022C140101A8440621E94410C43E2
:1038F000620704D00F222240042A00D0043462015F
:1039000004D5012201201A40002438E70122A40135
:10391000640A1A40002032E78023DB031C43640260
:10392000640A5246FF202AE79C7B0000DC7B0000F3
:10393000FFFFFFF7430270B542004C005D0AC30F62
:103940004802120E460A240EC90FFF2A0FD0FF2C80
:1039500011D00120A24200D070BDB542FCD18B42F3
:103960000DD0002AF8D12800431E9841F4E7012029
:10397000002DF1D1EBE70120002EEDD1E9E7002089
:10398000EAE7C0464302F0B542005D0AC30F4802B1
:10399000440A4800120E000EC90FFF2A1FD0FF284C
:1039A00022D0002A09D16E426E4100280FD1002C8E
:1039B0000DD10020002D09D005E0002801D1002CF8
:1039C00001D08B4213D0584201231843F0BD002E82
:1039D000F7D048424141012049420843F6E7002D13
:1039E000DDD002204042F1E7002CDAD0F9E7824234
:1039F000E9DC04DBA542E6D80020A542E6D2584225
:103A0000434101205B421843E0E7C0464302F0B562
:103A100042004C005E0AC30F4802120E450A240EF3
:103A2000C90FFF2A17D0FF2C19D0002A0BD17042E2
:103A30007041002C17D0002807D048424141012096
:103A400049420843F0BD002C13D08B4214D0584299
:103A500001231843F6E70220002EF3D1E3E702200A
:103A6000002DEFD1E1E7002DE5D10020002EE9D0B7
:103A7000EDE7002DE9D1EAE7A242E8DC04DBAE4243
:103A8000E5D80020AE42DDD25842434101205B42DE
:103A90001843D7E7F0B557464E4645464300E0B4D5
:103AA00046028846760A1F0EC40F002F47D0FF2F0C
:103AB00025D0002380259A469946F600ED042E4332
:103AC0007F3F434642465D02D20F5B006D0A1B0EEC
:103AD000904640D0FF2B39D080220020ED00D20448
:103AE00015437F3BFB1842465746591C62408C46A3
:103AF00007430F2F5CD86F49BF00C9598F46002E6E
:103B000045D108239A46063B9946DAE74246022801
:103B10002DD0032800D1C3E0012800D0A2E0002569
:103B200000260240D4B27602ED05760A2E43E40761
:103B3000264330001CBC90469946A246F0BD002E9C
:103B40001AD104239A46033B9946BAE72A00511E2C
:103B50008A41901CC6E70120002DC3D0280002F046
:103B600041F9431F76309D4043420020BAE70124CB
:103B7000FF2514400026D6E7300002F033F9431F3A
:103B80009E400023763047429A46994699E70C2397
:103B90009A46093B994694E780260024F603FF25C0
:103BA000C1E735004846B2E7350022004846AEE797
:103BB0002904090C0800370C3604360C2C0C794308
:103BC000704367437443060C64183619B14203D935
:103BD00080214902884647440004000C310409183A
:103BE0008D01681E8541890E2943350CED19AD0103
:103BF0000D43290104D5012369081D4063460D4387
:103C000019007F31002925DD680704D00F202840E6
:103C1000042800D00435280103D5274980330D40FE
:103C20001900FE29A3DC0124AD016E0A1440CDB2B7
:103C300079E78020C003064207D0054205D128431A
:103C40004602760A4446FF256DE706437602760A69
:103C5000FF2568E70124611A1B2905DD14400025B2
:103C6000002660E76346CBE72E002023CE40591A9A
:103C70008D406B1E9D412E43730704D00F233340AC
:103C8000042B00D00436730104D50124012514400F
:103C9000002648E70124B601760A1440002542E7D1
:103CA00080260124F6032E437602760A1440FF256F
:103CB00039E7C0461C7C0000FFFFFFF7F8B54A0259
:103CC0004E0043024400240EC50F9B09360EC90F57
:103CD0009209FF2E00D183E001204140A01BA942A0
:103CE0005CD0002800DC95E0002E1CD1002A00D01A
:103CF00081E05A0704D00F221A40042A00D004336E
:103D00005A013BD50134FF2C00D191E001209B01E9
:103D10005B0AE4B205405B02E4055B0AED0723435E
:103D20002B431800F8BDFF2CE3D08021C9040A43BF
:103D30001B2800DD90E016002021C640081A8240B2
:103D4000511E8A4132439B1A5A0115D59B019E0987
:103D5000300002F047F80538864084426CDC041BD2
:103D6000330020200134E340041BA640721E96411C
:103D700000243343BDE70D005A07BCD1DF080123FF
:103D80001D40FF2C33D1002F00D190E08022D203C0
:103D900013003B435B025B0AFF24BCE700284FDDB6
:103DA000002E2ED0FF2CA4D08025ED042A431B2802
:103DB00000DD97E016002025C640281A8240501EDC
:103DC000824132439B185A01D5D50134FF2C6DD066
:103DD00001227B481A405B08034013430D0088E72B
:103DE000002A00D07AE777E7031EC5D100257B02C1
:103DF0005B0AE4B28FE701380028A4D0FF2C97D1EA
:103E000077E7002A00D174E701380028DAD0FF2CC8
:103E1000CDD16EE7002821D1601CC0B2012858DD49
:103E200080279E1AFF0437402FD0D61A0D008FE747
:103E300001231D4000236EE7624B241A334058E7EC
:103E4000002851D1601CC6B2012E33DDFF282DD0D1
:103E50009B185B0804004CE7012274E7002C1AD081
:103E6000FF2E1FD08024E404404223431B2800DDA2
:103E700096E01D002024C540201A8340581E83412F
:103E80002B43D31A34000D005EE7002E00D05FE70D
:103E900000250024ABE7002B44D0C0430028F0D01D
:103EA000FF2EE3D11300FF240D0022E70D00FF24B5
:103EB000002330E7002C5DD1002B7DD0002A00D1FB
:103EC00017E79B185A0100D456E73E4A04001340F6
:103ED0000FE7002C1ED1002B2FD1002A65D0130034
:103EE0000D0006E701226DE7002C1FD1002B59D0F1
:103EF000C04300280BD0FF2E4FD01B285EDC1D00D6
:103F00002024C540201A8340581E83412B439B1810
:103F1000340058E7002B1CD1002A49D013000D00B3
:103F2000FF24E6E6130034000D00E2E6FF2E34D055
:103F30008024E40440422343DFE7002A00D1D8E68E
:103F40008027981AFF04074000D14DE7D31A0D00CF
:103F5000CFE6FF24002A00D1CBE68020DB08C00397
:103F6000034204D0D208024201D113000D00DB004D
:103F7000FF24BEE6002B10D0FF24002A00D1B8E6B3
:103F80008020DB08C003034203D0D208024200D1E4
:103F90001300DB000D00FF24ABE61300FF24A8E6AE
:103FA00001236EE713003400A3E6002700251EE777
:103FB00080270025FF03E9E613009AE60123A6E720
:103FC000FFFFFF7DFFFFFFFB4302590A4300C20FC3
:103FD0001B0E00207E2B0EDD9D2B0DDC80200004AF
:103FE0000143952B0BDC9620C31AD9400B00584295
:103FF000002A00D118007047034BD018FBE7963B0E
:1040000099400B00F3E7C046FFFFFF7F70B5041E29
:1040100028D001F0E7FE9E231B1A962B0ADC96227D
:10402000D21A94406202520AD8B25202520AC00511
:10403000104370BD992B18DC9922D21A9440114A72
:104040002240610704D00F210C40042C00D0043220
:10405000510103D50B4B1A409F231B1A9201520AA0
:10406000D8B2E2E700200022DFE705222500121A7D
:10407000B921D5402200C91A8A40541EA2412C0001
:104080001443DCE7FFFFFFFBF8B556465F464D469D
:104090004446F0B40F00FD0FAA4609037C002E0031
:1040A0005F00450F490A7F0D2943C5001803BC4630
:1040B000400A570F640DDB0F3843D2009A4500D1F8
:1040C000AAE06646A61B002E00DCFFE06346002B3C
:1040D00039D10300134300D0D9E06B0709D00F2377
:1040E0002B40042B05D02B1DAB42AD416D4249192D
:1040F0001D000B0200D482E0CA4B01349C4200D167
:10410000FEE00A005646C84BED081A405007640509
:1041100052020543120B640D002112030B0D1B0507
:104120006405120B1A436308C04CF60714401C4385
:10413000640064083443280021003CBC9046994642
:10414000A246AB46F8BDB74B9C42C6D080231B04A9
:104150001843382E00DDEBE01F2E00DD1EE120238A
:104160009B1B9C4603006746BB409846130047468E
:10417000F3403B436746BA40571EBA41134302001F
:10418000F240EB1A9D42B6411D008A1A7642911BFD
:104190000B0231D54A02560A002E00D1B4E030009D
:1041A00001F020FE0300083B1F2B00DDB5E02022BC
:1041B0002900D21AD1409E400A009D4032439C42C1
:1041C00000DDB1E01C1B631C1F2B00DDD5E02021AE
:1041D00014002800C91A8C40D8408D400443DA40AE
:1041E000681E854111002543002476E7414631438E
:1041F00000D134E2310045466B0700D06FE75646E8
:104200004807ED08C9080543864B9C4235D00A0390
:104210006405120B640D7FE76346E31A9B46002B8F
:1042200000DC8BE06746002F3CD07E4FBC4200D1C3
:1042300053E780273F0438435B46382B00DCF7E028
:104240000243501E82410020D2B253194218AB42A1
:1042500089411D00494289180B02CDD5714B0134AB
:104260009C4200D13DE101206F4A6B080A40284082
:104270001843D507054351082FE72B000B4300D106
:10428000CBE180231B030B431A03120B44E7013ECF
:10429000002E6DD1AE1AB5429B41091A5B42C91A74
:1042A000350075E70700174300D116E701235B428D
:1042B0009C46E3445B46002B00D0E0E0AA18AA42EB
:1042C0009B4109185B4259181500C5E7002E75D1AE
:1042D000661C7605760D012E00DCF3E0AE1AB046C2
:1042E0004545BF410E1A7F42F61B370200D48FE0CE
:1042F000551BAA42B641411A76428E1B9A464BE79D
:1043000056460022002507E7280001F06BFD20300B
:104310000300083B1F2B00DC49E72A0028388240B5
:1043200000259C4200DC4DE73F49E41A1140D4E6E9
:104330000243501E8241D3B2002222E7002B00D05C
:10434000F3E0631C9C465B055B0D012B00DC9FE0EA
:10435000344B9C4500D1C3E0AA180918AA428041F9
:1043600040424118CD075208154349086446B4E657
:104370002C4B9C4200D0ECE6AFE611001F3CE14024
:104380000C00202B00D17FE04021CB1A9A4015432E
:104390006A1E95410021254300242DE733000700C4
:1043A000203BDF403B00202E70D04027BE1BB0409A
:1043B0000243501E824113430022E2E6002C4FD0FC
:1043C000184CA44500D1ABE080242404764221435C
:1043D000382E00DDDFE01F2E00DD43E12027BC1B6F
:1043E000A1460C004F46BC40A0462C004746F44076
:1043F0003C434F46BD406F1EBD41F1402C43151B51
:10440000AA429241411A5242891A64469A46BFE62C
:1044100041464546314300D0BEE600260024002533
:10442000F2E6C046FF070000FFFF7FFFFFFF0F809F
:104430001F2B59DC2027FF1ABC46070063469F400C
:104440005B46B9461700DF40B8464F4643461F4318
:1044500063469A40531E9A415B463A43D840F4E67D
:104460000C002C435CD0F643002E55D1551BAA42BC
:10447000A441411A6442091B9A46644688E6964F55
:10448000BC4200D0D8E628E6002280E700208FE773
:104490000B002B43002C00D0C2E0002B00D101E127
:1044A0000300134300D118E6AB18AB42B64109181C
:1044B000764271180A0200D409E1884A1D001140B1
:1044C00064460AE6002C5BD10E002E4300D08AE041
:1044D0000100114300D1C2E0010015009A46FCE53D
:1044E0006446002100258FE620235B429C46DC4485
:1044F00063460700DF405B46BC46202B00D1ACE0A2
:1045000040235F46DB1B98400243501E82416346B6
:1045100013431A00002098E66F4CA44500D057E7DB
:104520000100150064469A46D7E5002C39D10C00ED
:104530002C436ED0DB43002B1AD0674CA44568D0C7
:10454000382B00DDA4E01F2B00DDAEE020240F009F
:10455000E41AA740B9462F00DF40B846A3464F46AD
:10456000444627435C46A5406C1EA541D9403D43C7
:10457000AD1895429B4109185B42591864466BE699
:104580000C002C4315D1010011437BD00100150014
:104590009A46514CA1E50D43691E8D410021ECB2B4
:1045A0002DE74D4CA44534D0802424045B422143A4
:1045B000C6E7040014434ED0ED084C072C43802579
:1045C000C9082D03294208D0C6082E4205D1D208B9
:1045D000410711430C009A463100620FC900E50003
:1045E00011433D4C79E50600164300D175E5AE1A3E
:1045F000B0464545BF410E1A7F42F61B370200D434
:10460000F4E5551BAA42B641411A7642891B9A46E7
:1046100063E50100150064465FE5002200257BE5A7
:10462000002B3BD00300134315D0ED084B072B4361
:104630008025C9082D03294207D0C4082C4204D183
:1046400041070B002100D2081343C9005A0F114340
:10465000DD00214C41E5204C3FE5002054E70026D9
:104660000025D1E534000F00203CE7403C00202E1F
:104670002BD04027BE1BB1400D43691E8D41002148
:104680002C43BCE6802100260903134C0025BBE522
:104690000D43691E8D410021EDB269E7010015004F
:1046A0000D4C1AE50100150017E51C000F00203C19
:1046B000E7403C00202B0CD04027FB1A99400D43CB
:1046C000691E8D410021254352E70021D4E71D00DA
:1046D00092E50021F3E7C046FF070000FFFF7FFFE0
:1046E000F0B556464D4644465F46F0B41D000E03F5
:1046F0004C00CB0F87B0070092468146360B640D05
:1047000098466AD06D4B9C4235D08022430F1204EC
:104710001343F6001E43C3009946694B00279C468D
:104720000023644402932B0368001B0BED0F5146DA
:104730009B46400D009500D178E0604B98426CD0CC
:104740005B46DA004B0F802109040B4313439B4661
:104750005346D9005A4B9C46002360444246201AD7
:104760006A40924601901F430F2F00D9B0E0554890
:10477000BF00C0598746374300D088E000239946E0
:104780000233082700260293CDE74346B346494645
:104790000093029B009A9246022B00D0BFE10021B9
:1047A00053460122002689461A40444B0021360315
:1047B0000C0D2405360B2643434C1B0526401E4397
:1047C0007600D207760816434846310007B03CBC55
:1047D00090469946A246AB46F0BD330003434FD006
:1047E000002E00D1BCE1300001F0FCFA03000B3BCD
:1047F0001C2B00DDADE11D220100D31A08393A005F
:104800008F408E40DA40B9461643304B00279C4615
:10481000002360444442029385E753465A461343BB
:104820002CD1002300219B46023397E70B4320D075
:104830005B46002B00D19EE1584601F0D3FA0300FD
:104840000B3B1C2B00DD8FE102005946083A9140DA
:104850008B461D21CB1A5146D9400B0059460B43BC
:1048600051469B469140194B9C4660444042002370
:1048700074E7002300219B4601336FE703236DE7B4
:104880000023994601330427002602934BE70323B4
:104890000C27029347E70122D51A382D00DCB0E13E
:1048A00053461A4000210023002689467EE7002354
:1048B0008026994600223603004B77E7FF07000069
:1048C00001FCFFFF5C7C0000FFFF0F80F303000092
:1048D0005E4500D972E100D16DE1019B4D46013B7F
:1048E00001930023340002935B461E020B0E1E430D
:1048F0000B020393330C994633041B0C49462000EA
:104900000093FEF721FC009B370043430600494615
:1049100020009846FEF79EFC2C0C09040C43A04591
:1049200009D9E419731EA74200D95CE1A04500D85B
:1049300059E1023EE4194346E41A49462000FEF7D5
:1049400003FC0300009A80465343494620009B46DF
:10495000FEF780FC2A040904120C0A4393450DD982
:104960004346D219013B974200D93AE1934500D81A
:1049700037E102235B429C46D219E0445B46D21ADF
:104980004346360433439B460399180C0B0C1D0019
:10499000059309045B46090C0C001B041B0C4443E3
:1049A000049159436B4368431B190D0CEB189C424F
:1049B00003D980246402A44660441C0C09041B042F
:1049C000090C20185D18824200D2DEE000D1D7E049
:1049D000161A029B9C465D1BAC459B415B42F61A36
:1049E000B74200D106E149463000FEF7ADFB009B1F
:1049F00004004343494630009846FEF72BFC2E0C3A
:104A000009040E43B04509D9F619631EB74200D90F
:104A1000F3E0B04500D8F0E0023CF6194346F31A43
:104A2000494618000293FEF78FFB009B06004343A4
:104A3000494602989846FEF70DFC2D0409042D0CFA
:104A40000D43A84509D9ED19731EAF4200D9D6E030
:104A5000A84500D8D3E0023EED19240421004346C6
:104A60003143049E059A3000ED1A0B040C0C1B0C0C
:104A700058436643534354439A19030C9B189E4270
:104A800003D980225202944664441A0C00041B0489
:104A9000000C14191B18A54250D34DD00123194303
:104AA000964A019B94466344002B00DCF3E64A07D8
:104AB00009D00F220A40042A05D00A1D8A428941E2
:104AC00049428B4411005A46D20108D55A468C4BB4
:104AD0001A4093468022D2009446019B6344894A3F
:104AE000934200DD5BE65A46C90850070843560268
:104AF000514601225B058146360B5B0D0A4055E6A7
:104B000080231B031E4211D05A461A420ED15E4624
:104B10001E433603360B2A0089467B4B46E6032BA1
:104B200000D1E1E0012BBBD11A40BBE61E433603A6
:104B3000360B4246744B39E6002BB1D07D194A1E24
:104B4000AF4252D91100A542A8D1039A9A42A5D1E9
:104B5000A6E703003E00283B9E400023994654E60A
:104B600001F040F9203041E603005246283B9A40CC
:104B70000021934677E6504601F034F920305EE696
:104B8000029B0026AB4200D323E7039E0299B44662
:104B900061448846B045B6415B467642F619B21884
:104BA000013B0291974213D290424FD800D18EE040
:104BB000161A9B460DE7894500D28EE674084B46CF
:104BC000F60735005B081D434B46DB0702938BE677
:104BD0009742EDD10399029CA142E5D93E1A9B462A
:104BE000F7E69846CAE61E00A5E6AC423ED874D069
:104BF000110053E70121494252E71C000EE71E0055
:104C00002BE71F2D3CDC20230A0058465B1B9840F5
:104C1000EA4099400243481E81415E461143EE40FE
:104C20004B0709D00F230B40042B05D00B00191D97
:104C300099429B415B42F61833023CD55346012210
:104C400000211A40002601238946AFE502235B427A
:104C50009C46039CE344A446029B63449846A045BB
:104C6000B6417642F6190293B218B1E603988A1E4D
:104C700041008142B6417642F619AD19039161E7D0
:104C80001F225242D31A5A46DA401300202D29D04F
:104C900040225846551BA8400143481E8141072029
:104CA0000B4318400026002809D00F2200261A4086
:104CB0001900042ABBD10B0070077602360BDB0803
:104CC00003439946012253461A4000236EE5029998
:104CD0008D42BBD89B4600267BE603989842C5D3FD
:104CE000110032E70020D7E780265B4636031E43DB
:104CF0003603360B009A8946034B57E5FF03000045
:104D0000FFFFFFFEFE070000FF070000F0B55F4653
:104D100056464D464446F0B41F035C00DB0F9A46EE
:104D2000194B0E034D00C90F8046360B6D0D8B4697
:104D300091463F0B640D9D4219D0134B9C421BD0F2
:104D40000123A54206D018003CBC90469946A246D5
:104D5000AB46F0BDBE42F6D1C845F4D1D34510D024
:104D6000002DF0D1304303005A1E9341EBE7310090
:104D700001230143E7D1E0E73A430123002AE2D1CE
:104D8000DEE70023DFE7C046FF070000F0B55F461F
:104D9000444656464D46F0B41F033C0B2C4F0E03C1
:104DA0004D00A3465C008446360B6D0DC90F90463E
:104DB000640DDB0FBD422BD0254FBC422ED0002D01
:104DC0000ED130430700814678427841002C17D13C
:104DD0005F463A4314D14B460020002B0AD006E030
:104DE000002C02D15846024301D099421AD0012327
:104DF000484218433CBC90469946A246AB46F0BD9B
:104E00000028F2D058425841012240421043F1E7B5
:104E100037000743D0D002204042EBE75F461743FC
:104E2000CDD0F8E7A542E2DC05DB5E45DFD808D04F
:104E300000205E45DED248424841012340421843EB
:104E4000D8E7C445D3D80020C445F4D3D2E7C04640
:104E5000FF070000F0B55F464D4644465646F0B4A5
:104E60001C03240BA4462F4C0F034D005E00C90FFA
:104E700080463F0B6D0D8B469146760DDB0FA542AC
:104E800020D0284CA64222D0002D12D138434442D3
:104E90004441002E20D0002C0DD05C4263410124FF
:104EA0005B421C4320003CBC90469946A246AB4660
:104EB000F0BD002E17D05B4519D05B465C42012344
:104EC0001C43EFE7390002240143EBD1D9E76146E7
:104ED00002241143E6D1D7E761460A43DBD100241F
:104EE0000028DFD0E9E761460A43E4D1E5E7B542AF
:104EF00003DD01225C421443D4E7B542CDDB6745B4
:104F0000DBD809D000246745CCD259464C426141D8
:104F1000012449420C43C5E7C845CED80024C84502
:104F2000F3D3BFE7FF070000F0B55F4656464D4696
:104F30004446F0B40D0399464E002B0B87B0070092
:104F4000924680469B46760DCC0F002E69D06D4B65
:104F50009E4235D05B468022DD001204430F13438E
:104F60002B439B46C3009846674B00279C46002373
:104F7000664401934A4615035000D20F53462D0B49
:104F8000400D914600D176E05E4A90426CD080227E
:104F90005B0F120413435C4AED0094461D435346D5
:104FA0000022DB00604449463618701C61400290C4
:104FB00017430F2F00D9AFE05448BF00C759BF4671
:104FC0005B461F4300D088E000239B46984602338F
:104FD00008270193CEE74946022A6AD0032A00D166
:104FE00009E2012A00D0BBE1114000220023002584
:104FF0009046CCB200212D030A0D12052D0B15434E
:10500000434A1B0515401D436D00E4076D08254309
:105010004046290007B03CBC90469946A246AB46A4
:10502000F0BD034352D05B46002B00D18AE15846C5
:1050300000F0D8FE03000B3B1C2B00DD7BE11D22A2
:10504000D31A3A0001005D46DA4008398D4013005A
:105050008F402B439B46B8462E4B00279C4600238F
:1050600060444642019385E752462A432CD10025ED
:105070000023022297E752462A4321D0002D00D177
:1050800054E1280000F0AEFE03000B3B1C2B00DDBA
:1050900046E11D21CB1A51460200D9405346083A39
:1050A000954093400D431B4A944660444042002281
:1050B00079E7012400220C40124B0025904699E725
:1050C0000025002301226EE703226CE700239B46A4
:1050D00098460133042701934CE703230C270193DF
:1050E00048E700238025984600242D03054B81E7DF
:1050F0005D464346019A6FE75D4643462100019AAB
:105100006AE7C046FF07000001FCFFFF9C7C00002F
:10511000FFFF0F80F30300004246120C91461A0C69
:105120009446424617044A461B041B0C5A436046E9
:1051300090464A4642431000039262461C003F0CD0
:105140007A437C4342440192220C9246019A524493
:10515000904506D98246802040028046C24450468F
:105160000390100C049048462404240C12041219D5
:1051700005922A0C2D042D0C68432C0082464846CB
:105180007C4350438146200C804657435744474454
:10519000BA4503D9802040028046C144380C3F0400
:1051A000B84648442404240C01900498A044404488
:1051B00004905846000C814658460404200C824650
:1051C000070048465F434C4643436046604364469D
:1051D000834650464443380C8446E4186444A34252
:1051E00003D980235B029C46E34448463F04230CDA
:1051F0003F0C2404E419574668436F4384464D46E8
:10520000504655434243380C814662444A445B440D
:10521000944503D9802040028446654403983F04A6
:10522000834604983F0C8446E344C3458041404292
:105230008246100484460198674484466744A34428
:10524000BC46A345A4419946D44464428742BF4129
:10525000D4458041E144A04699459B417F4240426C
:10526000C8440743120CBA18A045A4415F423B0052
:1052700064422343D71843467D19DB0D6D021D435D
:105280005B465A02059B1A43531E9A415B46DB0D4F
:105290001A4343465B021343EA0107D501225C0827
:1052A00013402343EA07029E13436D08574AB2187E
:1052B000002A4BDD580709D00F201840042805D0DC
:1052C000181D98429B415B42ED180300E80104D58C
:1052D0004F4A15408022D200B2184E48824200DD6B
:1052E000E7E60124DB08680718436D025305804692
:1052F0002D0B5B0D0C407DE68022594612031142B6
:1053000008D0154206D115432D0398462D0B4C4667
:10531000414B6FE65D4615432D032D0B3E4B69E671
:1053200003005546283B9D400023BCE6504600F054
:1053300059FD2030A8E60300283B9F400023BB46D0
:10534000984689E600F04EFD203073E60124A61A47
:10535000382E07DD00220C4000230025904649E648
:10536000029EA3E71F2E20DC20222C001800921B97
:10537000F040944093400443581E83411C43F54041
:10538000630709D00F232340042B05D023001C1DE5
:105390009C4292415242AD182B021FD5012400229B
:1053A0000C4001230025904624E61F202C0040429B
:1053B000821AD440202E1CD04022961BB5402B438D
:1053C000581E83410720234318400025002809D098
:1053D0000F2200251A401C00042AD8D12300680798
:1053E0006D022D0B0124DB08034398460C4000237B
:1053F00000E60025E3E780220124120315432D0374
:1054000098462D0B0C40044BF4E5C046FF0300000A
:10541000FFFFFFFEFE070000FF070000F0B5574644
:105420004E464546E0B40E001100F20F9246C5000C
:10543000420F180337037400400A4E0F7F0A3043AF
:10544000CF4E17435A00640D520DDB0FC900B24214
:1054500000D1E5E001267340A61AB446534500D1B9
:10546000AFE0002E00DC0DE1002A3AD103000B432F
:1054700000D0E4E06B0709D00F232B40042B05D0AC
:105480002B1DAB42AD416D427F191D003B0200D484
:1054900088E0BB4B01349C4200D110E13A00B94B8B
:1054A00051461A4001235007ED0852026405054396
:1054B000120B640D0B400021280012030D0D120B7E
:1054C00064052D0515436208AF4CDB072C401443DF
:1054D000640064081C4321001CBC90469946A24607
:1054E000F0BDA74B9C42C5D080231B0418436346E4
:1054F000382B00DDFDE01F2B00DD30E1624620236C
:105500009B1A02009A40664690460A009940F24073
:1055100046464B1E99413243114363460200DA402E
:10552000691A8D429B410D00BA1A5B42D71A3B02A1
:1055300035D57A02530A98464346002B00D1C4E081
:10554000404600F04FFC0300083B1F2B00DDC5E088
:1055500020222900D21A4746D1409F400A009D4090
:105560003A439C4200DDC0E01C1B631C1F2B00DD86
:10557000E4E0202114002800C91AD8408C408D4056
:105580000443DA40681E854117002543002471E773
:10559000424663461A4300D14CE2674645466B07D4
:1055A00000D069E7012351467807ED08FA080B405F
:1055B000054373498C4238D012036405120B640D05
:1055C00079E7002E00DC9AE0002A47D06C4A94422A
:1055D00000D14FE78022120410436246382A00DCD3
:1055E00008E10143481E81410022C9B24919D2197C
:1055F000A942BF410D007F42BF183A0200D442E1E8
:105600005F4A0134944200D14EE101205D4A6908AD
:105610003A4028400843D507054357089A4629E7EA
:1056200006000E4300D017E714E72900114300D10C
:10563000F9E1802109030A431203120B3BE701231E
:105640005B429846C4446346002B72D1691A8D426E
:105650009B413F1A5B42FF1A0D0068E702000A43B4
:1056600000D107E7012252429046C4446246002A14
:1056700000D0E6E06918A942B6413F187642F71912
:105680000D00BAE7002E00D080E0621C5205520DDA
:10569000012A00DCF9E06A1A91464D45B6413A1AF2
:1056A0007642921B9046120200D499E04D1BA9420B
:1056B0008941C71B49427A1A90469A463CE75246AE
:1056C0000123002513400022F5E6280000F08AFBA4
:1056D00020300300083B1F2B00DC39E72A00283864
:1056E000824000259C4200DC3EE7264FE41A17402A
:1056F000C0E60143481E81410022C9B210E7002ED6
:1057000000D0F1E0621C94465205520D012A00DCE3
:10571000A0E01B4A944500D1C5E06918A942924116
:105720003F185242D2194908D5070D43570864461D
:10573000A0E6134B9C4200D0D9E69BE611001F3C2B
:10574000E1400C00202B00D180E04021CB1A9A4090
:1057500015436A1E95410027254300241FE7634631
:105760000200203BDA406346202B71D0402366467E
:105770009B1B98400143481E814111430022CFE604
:10578000FF070000FFFF7FFFFFFF0F80002C48D0C6
:10579000CA4CA24200D1A2E07442A1468024240453
:1057A00027434C46382C00DDDBE01F2C00DD44E1B4
:1057B0004E462024A41B3E00A640A246B0464C46BE
:1057C0002E00E640B4464646644626435446A5406D
:1057D0006C1EA54134002C434D46EF400D1B28E0C4
:1057E0004A4643464D461A4300D0A5E6002300240E
:1057F0000025DEE61F2A5ADC66462022921B0600A0
:1058000096409146B04662460E00D6404246164348
:105810004A4691404A1E9141020060463143C240CF
:10582000E4E63C002C435AD0F443A146002C52D16C
:105830004D1BA9428941C71B49427F1A14009A4651
:1058400075E69E4A944200D0C7E613E600227FE741
:1058500000208FE7002C00D0C8E03B002B4300D194
:105860000FE103000B4300D104E66918A9429B41F4
:105870003F185B42DF193B0200D41AE1904B0D0048
:105880001F406446F6E59A4689E63A002A43002C12
:105890005CD1002A75D102000A4300D1CAE007009A
:1058A0000D009A46E6E564460022002581E6624640
:1058B0000600203AD6406246B046202A00D1B7E022
:1058C00040226646921B904001434246481E814159
:1058D000114300228AE6794CA24200D061E707001A
:1058E0000D0014009A46C5E5002C41D13C002C4324
:1058F00078D0F443A146002C20D0704CA24271D045
:105900004C46382C00DDB2E01F2C00DDBCE0202628
:10591000341BA2463C005646B4404E46A0462C00DE
:10592000F440A446444666463443A4465446A54043
:1059300064466E1EB54125434C46E7406D188D42C6
:1059400089413F184942CF19140056E6002A2FD149
:1059500002000A4300D184E007000D009A46574C2C
:1059600088E53D436F1EBD41ECB200270D1B60E78B
:10597000524CA24236D0744280263604A1463743A8
:10598000BEE702000A4300D174E56A1A9046454515
:10599000B6413A1A7642921B9446120200D4F7E5B9
:1059A0004D1BA9428941C71B49427F1A9A4661E5AE
:1059B00002000A433AD0ED087C072C438025FA0800
:1059C0002D032A4208D0C7082F4205D145072C00D5
:1059D0003A009A46C9080C43670FD200E500174306
:1059E000364C47E507000D00140043E53A002A4312
:1059F00043D002000A4319D0ED087C072C438025D0
:105A0000FA082D032A4207D0C6082E4204D14707C0
:105A10003C003200C9080C43D700620FE500174371
:105A20009A46264C26E50022002544E5234C21E534
:105A3000002049E700230025BBE54C463E00203C02
:105A4000E6404C46B446202C31D040244E46A61B9E
:105A5000B7403D436C1EA54164462C4300270D1BF7
:105A6000E7E6802200231203144C0025A1E53D4304
:105A70006F1EBD410027EDB260E707000D000F4C1F
:105A8000F8E407000D00F5E44E463C00203EF440EB
:105A9000A0464C46202C0ED040244E46A41BA740C6
:105AA0003D436F1EBD4144460027254346E700277E
:105AB000CFE70D0073E50027F2E7C046FF070000BF
:105AC000FFFF7FFF0B0330B5134D1A0B4B005B0D2F
:105AD000C90F0024AB4211DD104CA34210DC80241E
